{
  "contractName": "Nitya",
  "abi": [
    {
      "inputs": [],
      "payable": false,
      "stateMutability": "nonpayable",
      "type": "constructor"
    },
    {
      "constant": true,
      "inputs": [],
      "name": "getAdminAddress",
      "outputs": [
        {
          "internalType": "address",
          "name": "",
          "type": "address"
        }
      ],
      "payable": false,
      "stateMutability": "view",
      "type": "function"
    },
    {
      "constant": true,
      "inputs": [],
      "name": "getOwnAddress",
      "outputs": [
        {
          "internalType": "address",
          "name": "",
          "type": "address"
        }
      ],
      "payable": false,
      "stateMutability": "view",
      "type": "function"
    },
    {
      "constant": false,
      "inputs": [
        {
          "internalType": "string",
          "name": "name",
          "type": "string"
        },
        {
          "internalType": "string",
          "name": "gender",
          "type": "string"
        },
        {
          "internalType": "string",
          "name": "addr",
          "type": "string"
        },
        {
          "internalType": "string",
          "name": "mobile",
          "type": "string"
        },
        {
          "internalType": "string",
          "name": "email",
          "type": "string"
        },
        {
          "internalType": "string",
          "name": "subject",
          "type": "string"
        },
        {
          "internalType": "string",
          "name": "description",
          "type": "string"
        }
      ],
      "name": "registerComplaint",
      "outputs": [],
      "payable": false,
      "stateMutability": "nonpayable",
      "type": "function"
    },
    {
      "constant": true,
      "inputs": [],
      "name": "getAllComplaints",
      "outputs": [
        {
          "components": [
            {
              "internalType": "address",
              "name": "complainantID",
              "type": "address"
            },
            {
              "internalType": "string",
              "name": "subject",
              "type": "string"
            },
            {
              "internalType": "string",
              "name": "description",
              "type": "string"
            },
            {
              "internalType": "string",
              "name": "status",
              "type": "string"
            },
            {
              "internalType": "string[]",
              "name": "new_records",
              "type": "string[]"
            },
            {
              "internalType": "uint256",
              "name": "complaint_ref_no",
              "type": "uint256"
            }
          ],
          "internalType": "struct Nitya.Complaint[]",
          "name": "",
          "type": "tuple[]"
        }
      ],
      "payable": false,
      "stateMutability": "view",
      "type": "function"
    },
    {
      "constant": true,
      "inputs": [],
      "name": "getMyComplaints",
      "outputs": [
        {
          "components": [
            {
              "internalType": "address",
              "name": "complainantID",
              "type": "address"
            },
            {
              "internalType": "string",
              "name": "subject",
              "type": "string"
            },
            {
              "internalType": "string",
              "name": "description",
              "type": "string"
            },
            {
              "internalType": "string",
              "name": "status",
              "type": "string"
            },
            {
              "internalType": "string[]",
              "name": "new_records",
              "type": "string[]"
            },
            {
              "internalType": "uint256",
              "name": "complaint_ref_no",
              "type": "uint256"
            }
          ],
          "internalType": "struct Nitya.Complaint[]",
          "name": "",
          "type": "tuple[]"
        }
      ],
      "payable": false,
      "stateMutability": "view",
      "type": "function"
    },
    {
      "constant": true,
      "inputs": [
        {
          "internalType": "uint256",
          "name": "rid",
          "type": "uint256"
        }
      ],
      "name": "getComplaintByRef",
      "outputs": [
        {
          "components": [
            {
              "internalType": "address",
              "name": "complainantID",
              "type": "address"
            },
            {
              "internalType": "string",
              "name": "subject",
              "type": "string"
            },
            {
              "internalType": "string",
              "name": "description",
              "type": "string"
            },
            {
              "internalType": "string",
              "name": "status",
              "type": "string"
            },
            {
              "internalType": "string[]",
              "name": "new_records",
              "type": "string[]"
            },
            {
              "internalType": "uint256",
              "name": "complaint_ref_no",
              "type": "uint256"
            }
          ],
          "internalType": "struct Nitya.Complaint",
          "name": "",
          "type": "tuple"
        }
      ],
      "payable": false,
      "stateMutability": "view",
      "type": "function"
    },
    {
      "constant": false,
      "inputs": [
        {
          "internalType": "string",
          "name": "id",
          "type": "string"
        },
        {
          "internalType": "string",
          "name": "name",
          "type": "string"
        },
        {
          "internalType": "string",
          "name": "agency_type",
          "type": "string"
        },
        {
          "internalType": "string",
          "name": "assigned_person",
          "type": "string"
        },
        {
          "internalType": "string",
          "name": "location",
          "type": "string"
        }
      ],
      "name": "verifyAgency",
      "outputs": [],
      "payable": false,
      "stateMutability": "nonpayable",
      "type": "function"
    },
    {
      "constant": true,
      "inputs": [],
      "name": "getAllAgencies",
      "outputs": [
        {
          "components": [
            {
              "internalType": "address",
              "name": "id",
              "type": "address"
            },
            {
              "internalType": "string",
              "name": "name",
              "type": "string"
            },
            {
              "internalType": "string",
              "name": "agency_type",
              "type": "string"
            },
            {
              "internalType": "string",
              "name": "assigned_person",
              "type": "string"
            },
            {
              "internalType": "string",
              "name": "location",
              "type": "string"
            }
          ],
          "internalType": "struct Nitya.Agency[]",
          "name": "",
          "type": "tuple[]"
        }
      ],
      "payable": false,
      "stateMutability": "view",
      "type": "function"
    },
    {
      "constant": false,
      "inputs": [
        {
          "internalType": "string",
          "name": "new_data",
          "type": "string"
        },
        {
          "internalType": "uint256",
          "name": "rid",
          "type": "uint256"
        }
      ],
      "name": "updateComplaint",
      "outputs": [],
      "payable": false,
      "stateMutability": "nonpayable",
      "type": "function"
    }
  ],
  "bytecode": "0x608060405234801561001057600080fd5b5033600760006101000a81548173ffffffffffffffffffffffffffffffffffffffff021916908373ffffffffffffffffffffffffffffffffffffffff1602179055506000600381905550600060048190555063013413306006819055506125998061007c6000396000f3fe608060405234801561001057600080fd5b50600436106100935760003560e01c8063b2e6b91211610066578063b2e6b91214610120578063c3fb77151461013e578063ce6553df1461015c578063dfb39d7d14610178578063fca8631d1461019457610093565b80630dac9539146100985780634fc66471146100b6578063666cc521146100d2578063767d006714610102575b600080fd5b6100a06101b2565b6040516100ad919061234c565b60405180910390f35b6100d060048036036100cb9190810190611c95565b61058a565b005b6100ec60048036036100e79190810190611f1e565b6106bb565b6040516100f9919061236e565b60405180910390f35b61010a610a59565b604051610117919061234c565b60405180910390f35b610128610e9b565b604051610135919061230f565b60405180910390f35b610146610ec5565b604051610153919061232a565b60405180910390f35b61017660048036036101719190810190611d84565b61124d565b005b610192600480360361018d9190810190611eca565b611571565b005b61019c61172c565b6040516101a9919061230f565b60405180910390f35b6060806003546040519080825280602002602001820160405280156101f157816020015b6101de611a2a565b8152602001906001900390816101d65790505b50905060008090506000600190505b6003548111610581576000808281526020019081526020016000206040518060c00160405290816000820160009054906101000a900473ffffffffffffffffffffffffffffffffffffffff1673ffffffffffffffffffffffffffffffffffffffff1673ffffffffffffffffffffffffffffffffffffffff168152602001600182018054600181600116156101000203166002900480601f0160208091040260200160405190810160405280929190818152602001828054600181600116156101000203166002900480156103155780601f106102ea57610100808354040283529160200191610315565b820191906000526020600020905b8154815290600101906020018083116102f857829003601f168201915b50505050508152602001600282018054600181600116156101000203166002900480601f0160208091040260200160405190810160405280929190818152602001828054600181600116156101000203166002900480156103b75780601f1061038c576101008083540402835291602001916103b7565b820191906000526020600020905b81548152906001019060200180831161039a57829003601f168201915b50505050508152602001600382018054600181600116156101000203166002900480601f0160208091040260200160405190810160405280929190818152602001828054600181600116156101000203166002900480156104595780601f1061042e57610100808354040283529160200191610459565b820191906000526020600020905b81548152906001019060200180831161043c57829003601f168201915b5050505050815260200160048201805480602002602001604051908101604052809291908181526020016000905b82821015610543578382906000526020600020018054600181600116156101000203166002900480601f01602080910402602001604051908101604052809291908181526020018280546001816001161561010002031660029004801561052f5780601f106105045761010080835404028352916020019161052f565b820191906000526020600020905b81548152906001019060200180831161051257829003601f168201915b505050505081526020019060010190610487565b50505050815260200160058201548152505083838151811061056157fe5b602002602001018190525081806001019250508080600101915050610200565b50819250505090565b6005600081548092919060010191905055506040518060a001604052806105b087611734565b73ffffffffffffffffffffffffffffffffffffffff1681526020018581526020018481526020018381526020018281525060016000600554815260200190815260200160002060008201518160000160006101000a81548173ffffffffffffffffffffffffffffffffffffffff021916908373ffffffffffffffffffffffffffffffffffffffff1602179055506020820151816001019080519060200190610659929190611a76565b506040820151816002019080519060200190610676929190611a76565b506060820151816003019080519060200190610693929190611a76565b5060808201518160040190805190602001906106b0929190611a76565b509050505050505050565b6106c3611af6565b6000600190505b600354811015610a525782600080838152602001908152602001600020600501541415610a45576000808281526020019081526020016000206040518060c00160405290816000820160009054906101000a900473ffffffffffffffffffffffffffffffffffffffff1673ffffffffffffffffffffffffffffffffffffffff1673ffffffffffffffffffffffffffffffffffffffff168152602001600182018054600181600116156101000203166002900480601f0160208091040260200160405190810160405280929190818152602001828054600181600116156101000203166002900480156107fd5780601f106107d2576101008083540402835291602001916107fd565b820191906000526020600020905b8154815290600101906020018083116107e057829003601f168201915b50505050508152602001600282018054600181600116156101000203166002900480601f01602080910402602001604051908101604052809291908181526020018280546001816001161561010002031660029004801561089f5780601f106108745761010080835404028352916020019161089f565b820191906000526020600020905b81548152906001019060200180831161088257829003601f168201915b50505050508152602001600382018054600181600116156101000203166002900480601f0160208091040260200160405190810160405280929190818152602001828054600181600116156101000203166002900480156109415780601f1061091657610100808354040283529160200191610941565b820191906000526020600020905b81548152906001019060200180831161092457829003601f168201915b5050505050815260200160048201805480602002602001604051908101604052809291908181526020016000905b82821015610a2b578382906000526020600020018054600181600116156101000203166002900480601f016020809104026020016040519081016040528092919081815260200182805460018160011615610100020316600290048015610a175780601f106109ec57610100808354040283529160200191610a17565b820191906000526020600020905b8154815290600101906020018083116109fa57829003601f168201915b50505050508152602001906001019061096f565b505050508152602001600582015481525050915050610a54565b80806001019150506106ca565b505b919050565b606080600354604051908082528060200260200182016040528015610a9857816020015b610a85611a2a565b815260200190600190039081610a7d5790505b50905060008090506000600190505b6003548111610e92573373ffffffffffffffffffffffffffffffffffffffff1660008083815260200190815260200160002060000160009054906101000a900473ffffffffffffffffffffffffffffffffffffffff1673ffffffffffffffffffffffffffffffffffffffff161415610e85576000808281526020019081526020016000206040518060c00160405290816000820160009054906101000a900473ffffffffffffffffffffffffffffffffffffffff1673ffffffffffffffffffffffffffffffffffffffff1673ffffffffffffffffffffffffffffffffffffffff168152602001600182018054600181600116156101000203166002900480601f016020809104026020016040519081016040528092919081815260200182805460018160011615610100020316600290048015610c255780601f10610bfa57610100808354040283529160200191610c25565b820191906000526020600020905b815481529060010190602001808311610c0857829003601f168201915b50505050508152602001600282018054600181600116156101000203166002900480601f016020809104026020016040519081016040528092919081815260200182805460018160011615610100020316600290048015610cc75780601f10610c9c57610100808354040283529160200191610cc7565b820191906000526020600020905b815481529060010190602001808311610caa57829003601f168201915b50505050508152602001600382018054600181600116156101000203166002900480601f016020809104026020016040519081016040528092919081815260200182805460018160011615610100020316600290048015610d695780601f10610d3e57610100808354040283529160200191610d69565b820191906000526020600020905b815481529060010190602001808311610d4c57829003601f168201915b5050505050815260200160048201805480602002602001604051908101604052809291908181526020016000905b82821015610e53578382906000526020600020018054600181600116156101000203166002900480601f016020809104026020016040519081016040528092919081815260200182805460018160011615610100020316600290048015610e3f5780601f10610e1457610100808354040283529160200191610e3f565b820191906000526020600020905b815481529060010190602001808311610e2257829003601f168201915b505050505081526020019060010190610d97565b505050508152602001600582015481525050838381518110610e7157fe5b602002602001018190525081806001019250505b8080600101915050610aa7565b50819250505090565b6000600760009054906101000a900473ffffffffffffffffffffffffffffffffffffffff16905090565b606080600554604051908082528060200260200182016040528015610f0457816020015b610ef1611b42565b815260200190600190039081610ee95790505b50905060008090506000600190505b600554811161124457600160008281526020019081526020016000206040518060a00160405290816000820160009054906101000a900473ffffffffffffffffffffffffffffffffffffffff1673ffffffffffffffffffffffffffffffffffffffff1673ffffffffffffffffffffffffffffffffffffffff168152602001600182018054600181600116156101000203166002900480601f0160208091040260200160405190810160405280929190818152602001828054600181600116156101000203166002900480156110295780601f10610ffe57610100808354040283529160200191611029565b820191906000526020600020905b81548152906001019060200180831161100c57829003601f168201915b50505050508152602001600282018054600181600116156101000203166002900480601f0160208091040260200160405190810160405280929190818152602001828054600181600116156101000203166002900480156110cb5780601f106110a0576101008083540402835291602001916110cb565b820191906000526020600020905b8154815290600101906020018083116110ae57829003601f168201915b50505050508152602001600382018054600181600116156101000203166002900480601f01602080910402602001604051908101604052809291908181526020018280546001816001161561010002031660029004801561116d5780601f106111425761010080835404028352916020019161116d565b820191906000526020600020905b81548152906001019060200180831161115057829003601f168201915b50505050508152602001600482018054600181600116156101000203166002900480601f01602080910402602001604051908101604052809291908181526020018280546001816001161561010002031660029004801561120f5780601f106111e45761010080835404028352916020019161120f565b820191906000526020600020905b8154815290600101906020018083116111f257829003601f168201915b50505050508152505083838151811061122457fe5b602002602001018190525081806001019250508080600101915050610f13565b50819250505090565b6003600081548092919060010191905055506004600081548092919060010191905055506006600081548092919060010191905055506040518060c001604052803373ffffffffffffffffffffffffffffffffffffffff1681526020018881526020018781526020018681526020018581526020018481525060026000600454815260200190815260200160002060008201518160000160006101000a81548173ffffffffffffffffffffffffffffffffffffffff021916908373ffffffffffffffffffffffffffffffffffffffff160217905550602082015181600101908051906020019061133e929190611a76565b50604082015181600201908051906020019061135b929190611a76565b506060820151816003019080519060200190611378929190611a76565b506080820151816004019080519060200190611395929190611a76565b5060a08201518160050190805190602001906113b2929190611a76565b5090505033600080600354815260200190815260200160002060000160006101000a81548173ffffffffffffffffffffffffffffffffffffffff021916908373ffffffffffffffffffffffffffffffffffffffff1602179055508160008060035481526020019081526020016000206001019080519060200190611437929190611b87565b508060008060035481526020019081526020016000206002019080519060200190611463929190611b87565b506040518060400160405280600781526020017f50656e64696e6700000000000000000000000000000000000000000000000000815250600080600354815260200190815260200160002060030190805190602001906114c4929190611b87565b5060008060035481526020019081526020016000206004018060018154018082558091505090600182039060005260206000200160006040518060400160405280601d81526020017f436974697a656e207265676973746572656420636f6d706c61696e742e00000081525090919091509080519060200190611548929190611b87565b505060065460008060035481526020019081526020016000206005018190555050505050505050565b6001151561157e3361198d565b15151461158a57600080fd5b60008090505b600354811015611727578160008083815260200190815260200160002060050154141561171a57606060146040519080825280601f01601f1916602001820160405280156115ed5781602001600182028038833980820191505090505b50905060008090505b6014811015611673578060130360080260020a3373ffffffffffffffffffffffffffffffffffffffff168161162757fe5b0460f81b82828151811061163757fe5b60200101907effffffffffffffffffffffffffffffffffffffffffffffffffffffffffffff1916908160001a90535080806001019150506115f6565b506000808381526020019081526020016000206004018190806001815401808255809150509060018203906000526020600020016000909192909190915090805190602001906116c4929190611b87565b5050600080838152602001908152602001600020600401849080600181540180825580915050906001820390600052602060002001600090919290919091509080519060200190611716929190611b87565b5050505b8080600101915050611590565b505050565b600033905090565b6000606082905060008090506000806000600290505b602a811015611980576101008402935084818151811061176657fe5b602001015160f81c60f81b60f81c60ff16925084600182018151811061178857fe5b602001015160f81c60f81b60f81c60ff16915060618373ffffffffffffffffffffffffffffffffffffffff16101580156117d9575060668373ffffffffffffffffffffffffffffffffffffffff1611155b156117e957605783039250611883565b60418373ffffffffffffffffffffffffffffffffffffffff1610158015611827575060468373ffffffffffffffffffffffffffffffffffffffff1611155b1561183757603783039250611882565b60308373ffffffffffffffffffffffffffffffffffffffff1610158015611875575060398373ffffffffffffffffffffffffffffffffffffffff1611155b15611881576030830392505b5b5b60618273ffffffffffffffffffffffffffffffffffffffff16101580156118c1575060668273ffffffffffffffffffffffffffffffffffffffff1611155b156118d15760578203915061196b565b60418273ffffffffffffffffffffffffffffffffffffffff161015801561190f575060468273ffffffffffffffffffffffffffffffffffffffff1611155b1561191f5760378203915061196a565b60308273ffffffffffffffffffffffffffffffffffffffff161015801561195d575060398273ffffffffffffffffffffffffffffffffffffffff1611155b15611969576030820391505b5b5b8160108402018401935060028101905061174a565b5082945050505050919050565b600080600190505b6005548111611a1f578273ffffffffffffffffffffffffffffffffffffffff166001600083815260200190815260200160002060000160009054906101000a900473ffffffffffffffffffffffffffffffffffffffff1673ffffffffffffffffffffffffffffffffffffffff161415611a12576001915050611a25565b8080600101915050611995565b50600090505b919050565b6040518060c00160405280600073ffffffffffffffffffffffffffffffffffffffff16815260200160608152602001606081526020016060815260200160608152602001600081525090565b828054600181600116156101000203166002900490600052602060002090601f016020900481019282601f10611ab757805160ff1916838001178555611ae5565b82800160010185558215611ae5579182015b82811115611ae4578251825591602001919060010190611ac9565b5b509050611af29190611c07565b5090565b6040518060c00160405280600073ffffffffffffffffffffffffffffffffffffffff16815260200160608152602001606081526020016060815260200160608152602001600081525090565b6040518060a00160405280600073ffffffffffffffffffffffffffffffffffffffff168152602001606081526020016060815260200160608152602001606081525090565b828054600181600116156101000203166002900490600052602060002090601f016020900481019282601f10611bc857805160ff1916838001178555611bf6565b82800160010185558215611bf6579182015b82811115611bf5578251825591602001919060010190611bda565b5b509050611c039190611c07565b5090565b611c2991905b80821115611c25576000816000905550600101611c0d565b5090565b90565b600082601f830112611c3d57600080fd5b8135611c50611c4b826123bd565b612390565b91508082526020830160208301858383011115611c6c57600080fd5b611c778382846124ec565b50505092915050565b600081359050611c8f8161253f565b92915050565b600080600080600060a08688031215611cad57600080fd5b600086013567ffffffffffffffff811115611cc757600080fd5b611cd388828901611c2c565b955050602086013567ffffffffffffffff811115611cf057600080fd5b611cfc88828901611c2c565b945050604086013567ffffffffffffffff811115611d1957600080fd5b611d2588828901611c2c565b935050606086013567ffffffffffffffff811115611d4257600080fd5b611d4e88828901611c2c565b925050608086013567ffffffffffffffff811115611d6b57600080fd5b611d7788828901611c2c565b9150509295509295909350565b600080600080600080600060e0888a031215611d9f57600080fd5b600088013567ffffffffffffffff811115611db957600080fd5b611dc58a828b01611c2c565b975050602088013567ffffffffffffffff811115611de257600080fd5b611dee8a828b01611c2c565b965050604088013567ffffffffffffffff811115611e0b57600080fd5b611e178a828b01611c2c565b955050606088013567ffffffffffffffff811115611e3457600080fd5b611e408a828b01611c2c565b945050608088013567ffffffffffffffff811115611e5d57600080fd5b611e698a828b01611c2c565b93505060a088013567ffffffffffffffff811115611e8657600080fd5b611e928a828b01611c2c565b92505060c088013567ffffffffffffffff811115611eaf57600080fd5b611ebb8a828b01611c2c565b91505092959891949750929550565b60008060408385031215611edd57600080fd5b600083013567ffffffffffffffff811115611ef757600080fd5b611f0385828601611c2c565b9250506020611f1485828601611c80565b9150509250929050565b600060208284031215611f3057600080fd5b6000611f3e84828501611c80565b91505092915050565b6000611f538383612100565b905092915050565b6000611f678383612139565b905092915050565b6000611f7b8383612262565b905092915050565b611f8c816124b0565b82525050565b611f9b816124b0565b82525050565b6000611fac82612419565b611fb6818561246c565b935083602082028501611fc8856123e9565b8060005b858110156120045784840389528151611fe58582611f47565b9450611ff083612445565b925060208a01995050600181019050611fcc565b50829750879550505050505092915050565b600061202182612424565b61202b818561247d565b93508360208202850161203d856123f9565b8060005b85811015612079578484038952815161205a8582611f5b565b945061206583612452565b925060208a01995050600181019050612041565b50829750879550505050505092915050565b60006120968261242f565b6120a0818561248e565b9350836020820285016120b285612409565b8060005b858110156120ee57848403895281516120cf8582611f6f565b94506120da8361245f565b925060208a019950506001810190506120b6565b50829750879550505050505092915050565b600061210b8261243a565b612115818561249f565b93506121258185602086016124fb565b61212e8161252e565b840191505092915050565b600060a0830160008301516121516000860182611f83565b50602083015184820360208601526121698282612100565b915050604083015184820360408601526121838282612100565b9150506060830151848203606086015261219d8282612100565b915050608083015184820360808601526121b78282612100565b9150508091505092915050565b600060c0830160008301516121dc6000860182611f83565b50602083015184820360208601526121f48282612100565b9150506040830151848203604086015261220e8282612100565b915050606083015184820360608601526122288282612100565b915050608083015184820360808601526122428282611fa1565b91505060a083015161225760a0860182612300565b508091505092915050565b600060c08301600083015161227a6000860182611f83565b50602083015184820360208601526122928282612100565b915050604083015184820360408601526122ac8282612100565b915050606083015184820360608601526122c68282612100565b915050608083015184820360808601526122e08282611fa1565b91505060a08301516122f560a0860182612300565b508091505092915050565b612309816124e2565b82525050565b60006020820190506123246000830184611f92565b92915050565b600060208201905081810360008301526123448184612016565b905092915050565b60006020820190508181036000830152612366818461208b565b905092915050565b6000602082019050818103600083015261238881846121c4565b905092915050565b6000604051905081810181811067ffffffffffffffff821117156123b357600080fd5b8060405250919050565b600067ffffffffffffffff8211156123d457600080fd5b601f19601f8301169050602081019050919050565b6000819050602082019050919050565b6000819050602082019050919050565b6000819050602082019050919050565b600081519050919050565b600081519050919050565b600081519050919050565b600081519050919050565b6000602082019050919050565b6000602082019050919050565b6000602082019050919050565b600082825260208201905092915050565b600082825260208201905092915050565b600082825260208201905092915050565b600082825260208201905092915050565b60006124bb826124c2565b9050919050565b600073ffffffffffffffffffffffffffffffffffffffff82169050919050565b6000819050919050565b82818337600083830152505050565b60005b838110156125195780820151818401526020810190506124fe565b83811115612528576000848401525b50505050565b6000601f19601f8301169050919050565b612548816124e2565b811461255357600080fd5b5056fea365627a7a72315820893e3327a5fefb7a863ca451051774b13bfc7aacb1807871b2e727a5e1ce990c6c6578706572696d656e74616cf564736f6c63430005100040",
  "source": "pragma solidity >=0.4.22 <0.6.0;\npragma experimental ABIEncoderV2;\n\n\ncontract Nitya{\n\n    struct Complainant{\n        address id;\n        string name;\n        string gender;\n        string addr;\n        string mobile;\n        string email;\n    }\n    struct Complaint{\n        address complainantID;\n        string subject;\n        string description;\n        string status;\n        string[] new_records;\n        uint complaint_ref_no;\n    }\n    struct Agency{\n        address id;\n        string name;\n        string agency_type;\n        string assigned_person;\n        string location;\n    }\n    mapping(uint=>Complaint) private complaints;\n    mapping(uint=>Agency) private agencies;\n    mapping(uint=>Complainant) private complainants;\n    uint complaintCount;\n    uint complainantCount;\n    uint agencyCount;\n    uint complaint_ref_no;\n    address admin;\n\n    constructor() public {\n        admin = msg.sender;\n        complaintCount=0;\n        complainantCount=0;\n        complaint_ref_no=20190000;\n    }\n    \n    modifier onlyadmin() {\n        require(msg.sender == admin);\n        _;\n    }\n    \n    function isAuthorisedAgency(address addr) internal view returns (bool){\n         for(uint i=1;i<=agencyCount;i++){\n            if(agencies[i].id == addr){\n                return true;\n            }\n        }\n        return false;\n    }\n  \n    function parseAddr(string memory _a) internal pure returns (address _parsedAddress) {\n    bytes memory tmp = bytes(_a);\n    uint160 iaddr = 0;\n    uint160 b1;\n    uint160 b2;\n    for (uint i = 2; i < 2 + 2 * 20; i += 2) {\n        iaddr *= 256;\n        b1 = uint160(uint8(tmp[i]));\n        b2 = uint160(uint8(tmp[i + 1]));\n        if ((b1 >= 97) && (b1 <= 102)) {\n            b1 -= 87;\n        } else if ((b1 >= 65) && (b1 <= 70)) {\n            b1 -= 55;\n        } else if ((b1 >= 48) && (b1 <= 57)) {\n            b1 -= 48;\n        }\n        if ((b2 >= 97) && (b2 <= 102)) {\n            b2 -= 87;\n        } else if ((b2 >= 65) && (b2 <= 70)) {\n            b2 -= 55;\n        } else if ((b2 >= 48) && (b2 <= 57)) {\n            b2 -= 48;\n        }\n        iaddr += (b1 * 16 + b2);\n    }\n    return address(iaddr);\n}\n\n    function getAdminAddress() public view returns(address){\n        return admin;\n    }\n    \n    function getOwnAddress() public view returns(address){\n        return msg.sender;\n    }\n    \n    function registerComplaint( string memory name, string memory gender,string memory addr,string memory mobile,string memory email,string memory subject, string memory description) public {\n        complaintCount++;\n        complainantCount++;\n        complaint_ref_no++;\n        complainants[complainantCount]=Complainant(msg.sender,name,gender,addr,mobile,email);\n        complaints[complaintCount].complainantID=msg.sender;\n        complaints[complaintCount].subject=subject;\n        complaints[complaintCount].description=description;\n        complaints[complaintCount].status=\"Pending\";\n        complaints[complaintCount].new_records.push(\"Citizen registered complaint.\");\n        complaints[complaintCount].complaint_ref_no=complaint_ref_no;\n    }\n    \n    function getAllComplaints() public view returns(Complaint[] memory){\n        Complaint[] memory all_complaints=new Complaint[](complaintCount);\n        uint count=0;\n        for(uint i=1;i<=complaintCount;i++){\n                all_complaints[count]=complaints[i];\n                count++;\n        }\n        return all_complaints;\n    }\n\n    function getMyComplaints() public view returns(Complaint[] memory){\n        Complaint[] memory my_complaints=new Complaint[](complaintCount);\n        uint count=0;\n        for(uint i=1;i<=complaintCount;i++){\n            if(complaints[i].complainantID==msg.sender){\n                my_complaints[count]=complaints[i];\n                count++;\n            }\n        }\n        return my_complaints;\n    }\n    \n    function getComplaintByRef(uint rid) public view returns(Complaint memory){\n        for(uint i=1;i<complaintCount;i++){\n            if(complaints[i].complaint_ref_no==rid){\n                return complaints[i];\n            }\n        }\n    }\n    \n    function verifyAgency(string memory id,string memory name,string memory agency_type, string memory assigned_person,string memory location) public {\n        agencyCount++;\n        agencies[agencyCount]=Agency(parseAddr(id),name,agency_type, assigned_person,location);\n    }\n    \n    function getAllAgencies() public view returns(Agency[] memory){\n        Agency[] memory all_agencies=new Agency[](agencyCount);\n        uint count=0;\n        for(uint i=1;i<=agencyCount;i++){\n                all_agencies[count]=agencies[i];\n                count++;\n        }\n        return all_agencies;\n    }    \n    \n    function updateComplaint(string memory new_data, uint rid) public {\n        require(isAuthorisedAgency(msg.sender)==true);\n            for(uint i=0;i<complaintCount;i++){\n                if(complaints[i].complaint_ref_no==rid){\n                    bytes memory b = new bytes(20);\n                    for (uint j = 0; j < 20; j++){\n                        b[j] = byte(uint8(uint(msg.sender) / (2**(8*(19 - j)))));\n                    }\n                    complaints[i].new_records.push(string(b));\n                    complaints[i].new_records.push(new_data);\n                }\n            }\n        \n    }\n    \n}",
  "sourcePath": "/home/sarvottam/Desktop/GitHub/nitya/contracts/Nitya.sol",
  "compiler": {
    "name": "solc",
    "version": "0.5.16+commit.9c3226ce.Emscripten.clang"
  },
  "schemaVersion": "3.2.5",
  "updatedAt": "2020-10-06T06:07:06.417Z",
  "networkType": "ethereum",
  "devdoc": {
    "methods": {}
  },
  "userdoc": {
    "methods": {}
  }
}