{
  "contractName": "Nitya",
  "abi": [
    {
      "inputs": [],
      "payable": false,
      "stateMutability": "nonpayable",
      "type": "constructor"
    },
    {
      "constant": true,
      "inputs": [],
      "name": "getAdminAddress",
      "outputs": [
        {
          "internalType": "address",
          "name": "",
          "type": "address"
        }
      ],
      "payable": false,
      "stateMutability": "view",
      "type": "function"
    },
    {
      "constant": false,
      "inputs": [
        {
          "internalType": "string",
          "name": "name",
          "type": "string"
        },
        {
          "internalType": "string",
          "name": "gender",
          "type": "string"
        },
        {
          "internalType": "string",
          "name": "addr",
          "type": "string"
        },
        {
          "internalType": "string",
          "name": "mobile",
          "type": "string"
        },
        {
          "internalType": "string",
          "name": "email",
          "type": "string"
        },
        {
          "internalType": "string",
          "name": "subject",
          "type": "string"
        },
        {
          "internalType": "string",
          "name": "description",
          "type": "string"
        }
      ],
      "name": "registerComplaint",
      "outputs": [],
      "payable": false,
      "stateMutability": "nonpayable",
      "type": "function"
    },
    {
      "constant": true,
      "inputs": [
        {
          "internalType": "uint256",
          "name": "cid",
          "type": "uint256"
        }
      ],
      "name": "getComplaints",
      "outputs": [
        {
          "internalType": "address",
          "name": "",
          "type": "address"
        },
        {
          "internalType": "string",
          "name": "",
          "type": "string"
        },
        {
          "internalType": "string",
          "name": "",
          "type": "string"
        },
        {
          "internalType": "string",
          "name": "",
          "type": "string"
        }
      ],
      "payable": false,
      "stateMutability": "view",
      "type": "function"
    },
    {
      "constant": false,
      "inputs": [
        {
          "internalType": "string",
          "name": "id",
          "type": "string"
        },
        {
          "internalType": "string",
          "name": "name",
          "type": "string"
        },
        {
          "internalType": "string",
          "name": "location",
          "type": "string"
        }
      ],
      "name": "verifyAgency",
      "outputs": [],
      "payable": false,
      "stateMutability": "nonpayable",
      "type": "function"
    },
    {
      "constant": true,
      "inputs": [
        {
          "internalType": "uint256",
          "name": "cid",
          "type": "uint256"
        }
      ],
      "name": "getAgencies",
      "outputs": [
        {
          "internalType": "address",
          "name": "",
          "type": "address"
        },
        {
          "internalType": "string",
          "name": "",
          "type": "string"
        },
        {
          "internalType": "string",
          "name": "",
          "type": "string"
        }
      ],
      "payable": false,
      "stateMutability": "view",
      "type": "function"
    }
  ],
  "bytecode": "0x608060405234801561001057600080fd5b5033600660006101000a81548173ffffffffffffffffffffffffffffffffffffffff021916908373ffffffffffffffffffffffffffffffffffffffff160217905550600060038190555060006004819055506110de806100716000396000f3fe608060405234801561001057600080fd5b50600436106100575760003560e01c806348b3b1bf1461005c5780638b0d4c771461008e578063b2e6b912146100aa578063ce6553df146100c8578063d2d27255146100e4575b600080fd5b61007660048036036100719190810190610e55565b610117565b60405161008593929190610ee1565b60405180910390f35b6100a860048036036100a39190810190610c78565b6102c4565b005b6100b2610407565b6040516100bf9190610ec6565b60405180910390f35b6100e260048036036100dd9190810190610d0f565b610431565b005b6100fe60048036036100f99190810190610e55565b6106b2565b60405161010e9493929190610f26565b60405180910390f35b60006060806001600085815260200190815260200160002060000160009054906101000a900473ffffffffffffffffffffffffffffffffffffffff166001600086815260200190815260200160002060010160016000878152602001908152602001600020600201818054600181600116156101000203166002900480601f0160208091040260200160405190810160405280929190818152602001828054600181600116156101000203166002900480156102145780601f106101e957610100808354040283529160200191610214565b820191906000526020600020905b8154815290600101906020018083116101f757829003601f168201915b50505050509150808054600181600116156101000203166002900480601f0160208091040260200160405190810160405280929190818152602001828054600181600116156101000203166002900480156102b05780601f10610285576101008083540402835291602001916102b0565b820191906000526020600020905b81548152906001019060200180831161029357829003601f168201915b505050505090509250925092509193909250565b600660009054906101000a900473ffffffffffffffffffffffffffffffffffffffff1673ffffffffffffffffffffffffffffffffffffffff163373ffffffffffffffffffffffffffffffffffffffff161461031e57600080fd5b600560008154809291906001019190505550604051806060016040528061034485610911565b73ffffffffffffffffffffffffffffffffffffffff1681526020018381526020018281525060016000600554815260200190815260200160002060008201518160000160006101000a81548173ffffffffffffffffffffffffffffffffffffffff021916908373ffffffffffffffffffffffffffffffffffffffff16021790555060208201518160010190805190602001906103e1929190610b6a565b5060408201518160020190805190602001906103fe929190610b6a565b50905050505050565b6000600660009054906101000a900473ffffffffffffffffffffffffffffffffffffffff16905090565b6003600081548092919060010191905055506004600081548092919060010191905055506040518060c001604052803373ffffffffffffffffffffffffffffffffffffffff1681526020018881526020018781526020018681526020018581526020018481525060026000600454815260200190815260200160002060008201518160000160006101000a81548173ffffffffffffffffffffffffffffffffffffffff021916908373ffffffffffffffffffffffffffffffffffffffff1602179055506020820151816001019080519060200190610510929190610b6a565b50604082015181600201908051906020019061052d929190610b6a565b50606082015181600301908051906020019061054a929190610b6a565b506080820151816004019080519060200190610567929190610b6a565b5060a0820151816005019080519060200190610584929190610b6a565b5090505060405180608001604052803373ffffffffffffffffffffffffffffffffffffffff1681526020018381526020018281526020016040518060400160405280600781526020017f50656e64696e6700000000000000000000000000000000000000000000000000815250815250600080600354815260200190815260200160002060008201518160000160006101000a81548173ffffffffffffffffffffffffffffffffffffffff021916908373ffffffffffffffffffffffffffffffffffffffff160217905550602082015181600101908051906020019061066b929190610b6a565b506040820151816002019080519060200190610688929190610b6a565b5060608201518160030190805190602001906106a5929190610b6a565b5090505050505050505050565b6000606080606060008086815260200190815260200160002060000160009054906101000a900473ffffffffffffffffffffffffffffffffffffffff16600080878152602001908152602001600020600101600080888152602001908152602001600020600201600080898152602001908152602001600020600301828054600181600116156101000203166002900480601f0160208091040260200160405190810160405280929190818152602001828054600181600116156101000203166002900480156107c35780601f10610798576101008083540402835291602001916107c3565b820191906000526020600020905b8154815290600101906020018083116107a657829003601f168201915b50505050509250818054600181600116156101000203166002900480601f01602080910402602001604051908101604052809291908181526020018280546001816001161561010002031660029004801561085f5780601f106108345761010080835404028352916020019161085f565b820191906000526020600020905b81548152906001019060200180831161084257829003601f168201915b50505050509150808054600181600116156101000203166002900480601f0160208091040260200160405190810160405280929190818152602001828054600181600116156101000203166002900480156108fb5780601f106108d0576101008083540402835291602001916108fb565b820191906000526020600020905b8154815290600101906020018083116108de57829003601f168201915b5050505050905093509350935093509193509193565b6000606082905060008090506000806000600290505b602a811015610b5d576101008402935084818151811061094357fe5b602001015160f81c60f81b60f81c60ff16925084600182018151811061096557fe5b602001015160f81c60f81b60f81c60ff16915060618373ffffffffffffffffffffffffffffffffffffffff16101580156109b6575060668373ffffffffffffffffffffffffffffffffffffffff1611155b156109c657605783039250610a60565b60418373ffffffffffffffffffffffffffffffffffffffff1610158015610a04575060468373ffffffffffffffffffffffffffffffffffffffff1611155b15610a1457603783039250610a5f565b60308373ffffffffffffffffffffffffffffffffffffffff1610158015610a52575060398373ffffffffffffffffffffffffffffffffffffffff1611155b15610a5e576030830392505b5b5b60618273ffffffffffffffffffffffffffffffffffffffff1610158015610a9e575060668273ffffffffffffffffffffffffffffffffffffffff1611155b15610aae57605782039150610b48565b60418273ffffffffffffffffffffffffffffffffffffffff1610158015610aec575060468273ffffffffffffffffffffffffffffffffffffffff1611155b15610afc57603782039150610b47565b60308273ffffffffffffffffffffffffffffffffffffffff1610158015610b3a575060398273ffffffffffffffffffffffffffffffffffffffff1611155b15610b46576030820391505b5b5b81601084020184019350600281019050610927565b5082945050505050919050565b828054600181600116156101000203166002900490600052602060002090601f016020900481019282601f10610bab57805160ff1916838001178555610bd9565b82800160010185558215610bd9579182015b82811115610bd8578251825591602001919060010190610bbd565b5b509050610be69190610bea565b5090565b610c0c91905b80821115610c08576000816000905550600101610bf0565b5090565b90565b600082601f830112610c2057600080fd5b8135610c33610c2e82610fad565b610f80565b91508082526020830160208301858383011115610c4f57600080fd5b610c5a838284611031565b50505092915050565b600081359050610c7281611084565b92915050565b600080600060608486031215610c8d57600080fd5b600084013567ffffffffffffffff811115610ca757600080fd5b610cb386828701610c0f565b935050602084013567ffffffffffffffff811115610cd057600080fd5b610cdc86828701610c0f565b925050604084013567ffffffffffffffff811115610cf957600080fd5b610d0586828701610c0f565b9150509250925092565b600080600080600080600060e0888a031215610d2a57600080fd5b600088013567ffffffffffffffff811115610d4457600080fd5b610d508a828b01610c0f565b975050602088013567ffffffffffffffff811115610d6d57600080fd5b610d798a828b01610c0f565b965050604088013567ffffffffffffffff811115610d9657600080fd5b610da28a828b01610c0f565b955050606088013567ffffffffffffffff811115610dbf57600080fd5b610dcb8a828b01610c0f565b945050608088013567ffffffffffffffff811115610de857600080fd5b610df48a828b01610c0f565b93505060a088013567ffffffffffffffff811115610e1157600080fd5b610e1d8a828b01610c0f565b92505060c088013567ffffffffffffffff811115610e3a57600080fd5b610e468a828b01610c0f565b91505092959891949750929550565b600060208284031215610e6757600080fd5b6000610e7584828501610c63565b91505092915050565b610e8781610ff5565b82525050565b6000610e9882610fd9565b610ea28185610fe4565b9350610eb2818560208601611040565b610ebb81611073565b840191505092915050565b6000602082019050610edb6000830184610e7e565b92915050565b6000606082019050610ef66000830186610e7e565b8181036020830152610f088185610e8d565b90508181036040830152610f1c8184610e8d565b9050949350505050565b6000608082019050610f3b6000830187610e7e565b8181036020830152610f4d8186610e8d565b90508181036040830152610f618185610e8d565b90508181036060830152610f758184610e8d565b905095945050505050565b6000604051905081810181811067ffffffffffffffff82111715610fa357600080fd5b8060405250919050565b600067ffffffffffffffff821115610fc457600080fd5b601f19601f8301169050602081019050919050565b600081519050919050565b600082825260208201905092915050565b600061100082611007565b9050919050565b600073ffffffffffffffffffffffffffffffffffffffff82169050919050565b6000819050919050565b82818337600083830152505050565b60005b8381101561105e578082015181840152602081019050611043565b8381111561106d576000848401525b50505050565b6000601f19601f8301169050919050565b61108d81611027565b811461109857600080fd5b5056fea365627a7a72315820087b6cfc599c3426449204955ff75f0352f71f5f9c9f97782a27b79626c35cf76c6578706572696d656e74616cf564736f6c634300050c0040",
  "source": "pragma solidity >=0.4.22 <0.6.0;\npragma experimental ABIEncoderV2;\ncontract Nitya{\n\n    struct Complainant{\n        address id;\n        string name;\n        string gender;\n        string addr;\n        string mobile;\n        string email;\n    }\n    struct Complaint{\n        address complainantID;\n        string subject;\n        string description;\n        string status;\n    }\n    struct Agency{\n        address id;\n        string name;\n        string location;\n    }\n    mapping(uint=>Complaint) private complaints;\n    mapping(uint=>Agency) private agencies;\n    mapping(uint=>Complainant) private complainants;\n    uint complaintCount;\n    uint complainantCount;\n    uint agencyCount;\n    address admin;\n    constructor() public {\n        admin = msg.sender;\n        complaintCount=0;\n        complainantCount=0;\n    }\n    \n    modifier onlyadmin() {\n    require(msg.sender == admin);\n    _;\n    }\n    function parseAddr(string memory _a) internal pure returns (address _parsedAddress) {\n    bytes memory tmp = bytes(_a);\n    uint160 iaddr = 0;\n    uint160 b1;\n    uint160 b2;\n    for (uint i = 2; i < 2 + 2 * 20; i += 2) {\n        iaddr *= 256;\n        b1 = uint160(uint8(tmp[i]));\n        b2 = uint160(uint8(tmp[i + 1]));\n        if ((b1 >= 97) && (b1 <= 102)) {\n            b1 -= 87;\n        } else if ((b1 >= 65) && (b1 <= 70)) {\n            b1 -= 55;\n        } else if ((b1 >= 48) && (b1 <= 57)) {\n            b1 -= 48;\n        }\n        if ((b2 >= 97) && (b2 <= 102)) {\n            b2 -= 87;\n        } else if ((b2 >= 65) && (b2 <= 70)) {\n            b2 -= 55;\n        } else if ((b2 >= 48) && (b2 <= 57)) {\n            b2 -= 48;\n        }\n        iaddr += (b1 * 16 + b2);\n    }\n    return address(iaddr);\n}\n    function getAdminAddress() public view returns(address){\n        return admin;\n    }\n    \n    function registerComplaint( string memory name, string memory gender,string memory addr,string memory mobile,string memory email,string memory subject, string memory description) public {\n        complaintCount++;\n        complainantCount++;\n        complainants[complainantCount]=Complainant(msg.sender,name,gender,addr,mobile,email);\n        complaints[complaintCount]=Complaint(msg.sender,subject,description,'Pending');\n    }\n    \n    function getComplaints(uint cid) public  view returns(address,string memory,string memory,string memory){\n            return (complaints[cid].complainantID,complaints[cid].subject,complaints[cid].description,complaints[cid].status);\n    }\n    \n    function verifyAgency(string memory id,string memory name, string memory location) public onlyadmin {\n        agencyCount++;\n        agencies[agencyCount]=Agency(parseAddr(id),name,location);\n    }\n    \n    function getAgencies(uint cid) public view returns(address,string memory,string memory) {\n        return (agencies[cid].id,agencies[cid].name,agencies[cid].location);\n    }\n    \n    // function updateStatus(uint cid) public {\n    //     complaints[cid].status=Status.Accepted;\n    // }\n    \n    // function checkStatus(uint cid) public  view returns(Status){\n    //     return complaints[cid].status;\n    // }\n    \n}",
  "sourcePath": "/Users/sarvottamkumar/Desktop/Github/nitya/contracts/Nitya.sol",
  "compiler": {
    "name": "solc",
    "version": "0.5.12+commit.7709ece9.Emscripten.clang"
  },
  "schemaVersion": "3.0.19",
  "updatedAt": "2019-11-29T08:32:51.341Z",
  "devdoc": {
    "methods": {}
  },
  "userdoc": {
    "methods": {}
  }
}