{
  "contractName": "Nitya",
  "abi": [
    {
      "inputs": [],
      "payable": false,
      "stateMutability": "nonpayable",
      "type": "constructor"
    },
    {
      "constant": true,
      "inputs": [],
      "name": "getSuperuserAddress",
      "outputs": [
        {
          "internalType": "address",
          "name": "",
          "type": "address"
        }
      ],
      "payable": false,
      "stateMutability": "view",
      "type": "function"
    },
    {
      "constant": false,
      "inputs": [
        {
          "internalType": "string",
          "name": "data",
          "type": "string"
        }
      ],
      "name": "writeComplaint",
      "outputs": [],
      "payable": false,
      "stateMutability": "nonpayable",
      "type": "function"
    },
    {
      "constant": true,
      "inputs": [
        {
          "internalType": "uint256",
          "name": "cid",
          "type": "uint256"
        }
      ],
      "name": "getComplaints",
      "outputs": [
        {
          "internalType": "string",
          "name": "",
          "type": "string"
        },
        {
          "internalType": "address",
          "name": "",
          "type": "address"
        },
        {
          "internalType": "enum Nitya.Status",
          "name": "",
          "type": "uint8"
        },
        {
          "internalType": "string",
          "name": "",
          "type": "string"
        }
      ],
      "payable": false,
      "stateMutability": "view",
      "type": "function"
    },
    {
      "constant": false,
      "inputs": [
        {
          "internalType": "uint256",
          "name": "cid",
          "type": "uint256"
        }
      ],
      "name": "updateStatus",
      "outputs": [],
      "payable": false,
      "stateMutability": "nonpayable",
      "type": "function"
    },
    {
      "constant": true,
      "inputs": [
        {
          "internalType": "uint256",
          "name": "cid",
          "type": "uint256"
        }
      ],
      "name": "checkStatus",
      "outputs": [
        {
          "internalType": "enum Nitya.Status",
          "name": "",
          "type": "uint8"
        }
      ],
      "payable": false,
      "stateMutability": "view",
      "type": "function"
    }
  ],
  "bytecode": "0x608060405234801561001057600080fd5b50336000806101000a81548173ffffffffffffffffffffffffffffffffffffffff021916908373ffffffffffffffffffffffffffffffffffffffff16021790555060006002819055506108ae806100686000396000f3fe608060405234801561001057600080fd5b50600436106100575760003560e01c80632858c7641461005c57806367da51c4146100ac5780639c8fc7ff14610167578063d2d27255146101b1578063d61e72011461030c575b600080fd5b6100886004803603602081101561007257600080fd5b810190808035906020019092919050505061033a565b6040518082600381111561009857fe5b60ff16815260200191505060405180910390f35b610165600480360360208110156100c257600080fd5b81019080803590602001906401000000008111156100df57600080fd5b8201836020820111156100f157600080fd5b8035906020019184600183028401116401000000008311171561011357600080fd5b91908080601f016020809104026020016040519081016040528093929190818152602001838380828437600081840152601f19601f8201169050808301925050505050505091929192905050506103c0565b005b61016f610543565b604051808273ffffffffffffffffffffffffffffffffffffffff1673ffffffffffffffffffffffffffffffffffffffff16815260200191505060405180910390f35b6101dd600480360360208110156101c757600080fd5b810190808035906020019092919050505061056c565b60405180806020018573ffffffffffffffffffffffffffffffffffffffff1673ffffffffffffffffffffffffffffffffffffffff16815260200184600381111561022357fe5b60ff16815260200180602001838103835287818151815260200191508051906020019080838360005b8381101561026757808201518184015260208101905061024c565b50505050905090810190601f1680156102945780820380516001836020036101000a031916815260200191505b50838103825284818151815260200191508051906020019080838360005b838110156102cd5780820151818401526020810190506102b2565b50505050905090810190601f1680156102fa5780820380516001836020036101000a031916815260200191505b50965050505050505060405180910390f35b6103386004803603602081101561032257600080fd5b8101908080359060200190929190505050610741565b005b60008060009054906101000a900473ffffffffffffffffffffffffffffffffffffffff1673ffffffffffffffffffffffffffffffffffffffff163373ffffffffffffffffffffffffffffffffffffffff161461039557600080fd5b6001600083815260200190815260200160002060010160149054906101000a900460ff169050919050565b6000809054906101000a900473ffffffffffffffffffffffffffffffffffffffff1673ffffffffffffffffffffffffffffffffffffffff163373ffffffffffffffffffffffffffffffffffffffff16141561041a57600080fd5b60026000815480929190600101919050555060405180608001604052808281526020013373ffffffffffffffffffffffffffffffffffffffff1681526020016000600381111561046657fe5b81526020016040518060200160405280600081525081525060016000600254815260200190815260200160002060008201518160000190805190602001906104af9291906107d4565b5060208201518160010160006101000a81548173ffffffffffffffffffffffffffffffffffffffff021916908373ffffffffffffffffffffffffffffffffffffffff16021790555060408201518160010160146101000a81548160ff0219169083600381111561051b57fe5b0217905550606082015181600201908051906020019061053c9291906107d4565b5090505050565b60008060009054906101000a900473ffffffffffffffffffffffffffffffffffffffff16905090565b60606000806060600160008681526020019081526020016000206000016001600087815260200190815260200160002060010160009054906101000a900473ffffffffffffffffffffffffffffffffffffffff166001600088815260200190815260200160002060010160149054906101000a900460ff1660016000898152602001908152602001600020600201838054600181600116156101000203166002900480601f01602080910402602001604051908101604052809291908181526020018280546001816001161561010002031660029004801561068f5780601f106106645761010080835404028352916020019161068f565b820191906000526020600020905b81548152906001019060200180831161067257829003601f168201915b50505050509350808054600181600116156101000203166002900480601f01602080910402602001604051908101604052809291908181526020018280546001816001161561010002031660029004801561072b5780601f106107005761010080835404028352916020019161072b565b820191906000526020600020905b81548152906001019060200180831161070e57829003601f168201915b5050505050905093509350935093509193509193565b6000809054906101000a900473ffffffffffffffffffffffffffffffffffffffff1673ffffffffffffffffffffffffffffffffffffffff163373ffffffffffffffffffffffffffffffffffffffff161461079a57600080fd5b600180600083815260200190815260200160002060010160146101000a81548160ff021916908360038111156107cc57fe5b021790555050565b828054600181600116156101000203166002900490600052602060002090601f016020900481019282601f1061081557805160ff1916838001178555610843565b82800160010185558215610843579182015b82811115610842578251825591602001919060010190610827565b5b5090506108509190610854565b5090565b61087691905b8082111561087257600081600090555060010161085a565b5090565b9056fea265627a7a723158207ef15a312e375c10244b4f8f51241711246a5bbd9505f7aaa92eecd25dcd1b7f64736f6c634300050c0032",
  "source": "pragma solidity >=0.4.22 <0.6.0;\n// pragma experimental ABIEncoderV2;\ncontract Nitya{\n    enum Status { Pending, Accepted, Resolved, Proposed }\n\n    address superuser;\n    struct Complaint{\n        string _data; \n        address _personID;\n        Status status;\n        string _forensic_data;\n    }\n    \n    mapping(uint=>Complaint) private complaints;\n    uint complaintCount;\n    constructor() public {\n        superuser = msg.sender;\n        complaintCount=0;\n    }\n    \n    modifier onlySuperuser() {\n    require(msg.sender == superuser);\n    _;\n    }\n    \n    modifier onlyPerson(){\n        require(msg.sender!=superuser);\n        _;\n    }\n    \n    function getSuperuserAddress() public view returns(address){\n        return superuser;\n    }\n    \n    function writeComplaint(string memory data) public onlyPerson {\n        complaintCount++;\n        complaints[complaintCount]=Complaint(data,msg.sender,Status.Pending,'');\n    }\n    \n    function getComplaints(uint cid) public  view returns(string memory,address,Status,string memory){\n            return (complaints[cid]._data,complaints[cid]._personID,complaints[cid].status,complaints[cid]._forensic_data);\n    }\n    \n    function updateStatus(uint cid) public onlySuperuser{\n        complaints[cid].status=Status.Accepted;\n    }\n    \n    function checkStatus(uint cid) public onlySuperuser view returns(Status){\n        return complaints[cid].status;\n    }\n    \n}",
  "sourcePath": "/Users/sarvottamkumar/Desktop/Github/nitya/contracts/Nitya.sol",
  "compiler": {
    "name": "solc",
    "version": "0.5.12+commit.7709ece9.Emscripten.clang"
  },
  "schemaVersion": "3.0.19",
  "updatedAt": "2019-11-21T08:03:17.774Z",
  "networkType": "ethereum",
  "devdoc": {
    "methods": {}
  },
  "userdoc": {
    "methods": {}
  }
}