{
  "contractName": "Nitya",
  "abi": [
    {
      "inputs": [],
      "payable": false,
      "stateMutability": "nonpayable",
      "type": "constructor"
    },
    {
      "constant": true,
      "inputs": [],
      "name": "getAdminAddress",
      "outputs": [
        {
          "internalType": "address",
          "name": "",
          "type": "address"
        }
      ],
      "payable": false,
      "stateMutability": "view",
      "type": "function"
    },
    {
      "constant": true,
      "inputs": [],
      "name": "getOwnAddress",
      "outputs": [
        {
          "internalType": "address",
          "name": "",
          "type": "address"
        }
      ],
      "payable": false,
      "stateMutability": "view",
      "type": "function"
    },
    {
      "constant": false,
      "inputs": [
        {
          "internalType": "string",
          "name": "name",
          "type": "string"
        },
        {
          "internalType": "string",
          "name": "gender",
          "type": "string"
        },
        {
          "internalType": "string",
          "name": "addr",
          "type": "string"
        },
        {
          "internalType": "string",
          "name": "mobile",
          "type": "string"
        },
        {
          "internalType": "string",
          "name": "email",
          "type": "string"
        },
        {
          "internalType": "string",
          "name": "subject",
          "type": "string"
        },
        {
          "internalType": "string",
          "name": "description",
          "type": "string"
        }
      ],
      "name": "registerComplaint",
      "outputs": [],
      "payable": false,
      "stateMutability": "nonpayable",
      "type": "function"
    },
    {
      "constant": true,
      "inputs": [],
      "name": "getAllComplaints",
      "outputs": [
        {
          "components": [
            {
              "internalType": "address",
              "name": "complainantID",
              "type": "address"
            },
            {
              "internalType": "string",
              "name": "subject",
              "type": "string"
            },
            {
              "internalType": "string",
              "name": "description",
              "type": "string"
            },
            {
              "internalType": "string",
              "name": "status",
              "type": "string"
            },
            {
              "internalType": "string[]",
              "name": "new_records",
              "type": "string[]"
            },
            {
              "internalType": "uint256",
              "name": "complaint_ref_no",
              "type": "uint256"
            }
          ],
          "internalType": "struct Nitya.Complaint[]",
          "name": "",
          "type": "tuple[]"
        }
      ],
      "payable": false,
      "stateMutability": "view",
      "type": "function"
    },
    {
      "constant": true,
      "inputs": [],
      "name": "getMyComplaints",
      "outputs": [
        {
          "components": [
            {
              "internalType": "address",
              "name": "complainantID",
              "type": "address"
            },
            {
              "internalType": "string",
              "name": "subject",
              "type": "string"
            },
            {
              "internalType": "string",
              "name": "description",
              "type": "string"
            },
            {
              "internalType": "string",
              "name": "status",
              "type": "string"
            },
            {
              "internalType": "string[]",
              "name": "new_records",
              "type": "string[]"
            },
            {
              "internalType": "uint256",
              "name": "complaint_ref_no",
              "type": "uint256"
            }
          ],
          "internalType": "struct Nitya.Complaint[]",
          "name": "",
          "type": "tuple[]"
        }
      ],
      "payable": false,
      "stateMutability": "view",
      "type": "function"
    },
    {
      "constant": true,
      "inputs": [
        {
          "internalType": "uint256",
          "name": "rid",
          "type": "uint256"
        }
      ],
      "name": "getComplaintByRef",
      "outputs": [
        {
          "components": [
            {
              "internalType": "address",
              "name": "complainantID",
              "type": "address"
            },
            {
              "internalType": "string",
              "name": "subject",
              "type": "string"
            },
            {
              "internalType": "string",
              "name": "description",
              "type": "string"
            },
            {
              "internalType": "string",
              "name": "status",
              "type": "string"
            },
            {
              "internalType": "string[]",
              "name": "new_records",
              "type": "string[]"
            },
            {
              "internalType": "uint256",
              "name": "complaint_ref_no",
              "type": "uint256"
            }
          ],
          "internalType": "struct Nitya.Complaint",
          "name": "",
          "type": "tuple"
        }
      ],
      "payable": false,
      "stateMutability": "view",
      "type": "function"
    },
    {
      "constant": false,
      "inputs": [
        {
          "internalType": "string",
          "name": "id",
          "type": "string"
        },
        {
          "internalType": "string",
          "name": "name",
          "type": "string"
        },
        {
          "internalType": "string",
          "name": "location",
          "type": "string"
        }
      ],
      "name": "verifyAgency",
      "outputs": [],
      "payable": false,
      "stateMutability": "nonpayable",
      "type": "function"
    },
    {
      "constant": true,
      "inputs": [],
      "name": "getAllAgencies",
      "outputs": [
        {
          "components": [
            {
              "internalType": "address",
              "name": "id",
              "type": "address"
            },
            {
              "internalType": "string",
              "name": "name",
              "type": "string"
            },
            {
              "internalType": "string",
              "name": "location",
              "type": "string"
            }
          ],
          "internalType": "struct Nitya.Agency[]",
          "name": "",
          "type": "tuple[]"
        }
      ],
      "payable": false,
      "stateMutability": "view",
      "type": "function"
    },
    {
      "constant": false,
      "inputs": [
        {
          "internalType": "string",
          "name": "new_data",
          "type": "string"
        },
        {
          "internalType": "uint256",
          "name": "cid",
          "type": "uint256"
        }
      ],
      "name": "updateComplaint",
      "outputs": [],
      "payable": false,
      "stateMutability": "nonpayable",
      "type": "function"
    }
  ],
  "bytecode": "0x608060405234801561001057600080fd5b5033600760006101000a81548173ffffffffffffffffffffffffffffffffffffffff021916908373ffffffffffffffffffffffffffffffffffffffff1602179055506000600381905550600060048190555063013413306006819055506122f88061007c6000396000f3fe608060405234801561001057600080fd5b50600436106100935760003560e01c8063b2e6b91211610066578063b2e6b91214610120578063c3fb77151461013e578063ce6553df1461015c578063dfb39d7d14610178578063fca8631d1461019457610093565b80630dac953914610098578063666cc521146100b6578063767d0067146100e65780638b0d4c7714610104575b600080fd5b6100a06101b2565b6040516100ad91906120ab565b60405180910390f35b6100d060048036036100cb9190810190611cb1565b61058a565b6040516100dd91906120cd565b60405180910390f35b6100ee610928565b6040516100fb91906120ab565b60405180910390f35b61011e60048036036101199190810190611a80565b610d6a565b005b610128610ead565b604051610135919061206e565b60405180910390f35b610146610ed7565b6040516101539190612089565b60405180910390f35b61017660048036036101719190810190611b17565b611176565b005b610192600480360361018d9190810190611c5d565b61149a565b005b61019c611525565b6040516101a9919061206e565b60405180910390f35b6060806003546040519080825280602002602001820160405280156101f157816020015b6101de611823565b8152602001906001900390816101d65790505b50905060008090506000600190505b6003548111610581576000808281526020019081526020016000206040518060c00160405290816000820160009054906101000a900473ffffffffffffffffffffffffffffffffffffffff1673ffffffffffffffffffffffffffffffffffffffff1673ffffffffffffffffffffffffffffffffffffffff168152602001600182018054600181600116156101000203166002900480601f0160208091040260200160405190810160405280929190818152602001828054600181600116156101000203166002900480156103155780601f106102ea57610100808354040283529160200191610315565b820191906000526020600020905b8154815290600101906020018083116102f857829003601f168201915b50505050508152602001600282018054600181600116156101000203166002900480601f0160208091040260200160405190810160405280929190818152602001828054600181600116156101000203166002900480156103b75780601f1061038c576101008083540402835291602001916103b7565b820191906000526020600020905b81548152906001019060200180831161039a57829003601f168201915b50505050508152602001600382018054600181600116156101000203166002900480601f0160208091040260200160405190810160405280929190818152602001828054600181600116156101000203166002900480156104595780601f1061042e57610100808354040283529160200191610459565b820191906000526020600020905b81548152906001019060200180831161043c57829003601f168201915b5050505050815260200160048201805480602002602001604051908101604052809291908181526020016000905b82821015610543578382906000526020600020018054600181600116156101000203166002900480601f01602080910402602001604051908101604052809291908181526020018280546001816001161561010002031660029004801561052f5780601f106105045761010080835404028352916020019161052f565b820191906000526020600020905b81548152906001019060200180831161051257829003601f168201915b505050505081526020019060010190610487565b50505050815260200160058201548152505083838151811061056157fe5b602002602001018190525081806001019250508080600101915050610200565b50819250505090565b61059261186f565b6000600190505b6003548110156109215782600080838152602001908152602001600020600501541415610914576000808281526020019081526020016000206040518060c00160405290816000820160009054906101000a900473ffffffffffffffffffffffffffffffffffffffff1673ffffffffffffffffffffffffffffffffffffffff1673ffffffffffffffffffffffffffffffffffffffff168152602001600182018054600181600116156101000203166002900480601f0160208091040260200160405190810160405280929190818152602001828054600181600116156101000203166002900480156106cc5780601f106106a1576101008083540402835291602001916106cc565b820191906000526020600020905b8154815290600101906020018083116106af57829003601f168201915b50505050508152602001600282018054600181600116156101000203166002900480601f01602080910402602001604051908101604052809291908181526020018280546001816001161561010002031660029004801561076e5780601f106107435761010080835404028352916020019161076e565b820191906000526020600020905b81548152906001019060200180831161075157829003601f168201915b50505050508152602001600382018054600181600116156101000203166002900480601f0160208091040260200160405190810160405280929190818152602001828054600181600116156101000203166002900480156108105780601f106107e557610100808354040283529160200191610810565b820191906000526020600020905b8154815290600101906020018083116107f357829003601f168201915b5050505050815260200160048201805480602002602001604051908101604052809291908181526020016000905b828210156108fa578382906000526020600020018054600181600116156101000203166002900480601f0160208091040260200160405190810160405280929190818152602001828054600181600116156101000203166002900480156108e65780601f106108bb576101008083540402835291602001916108e6565b820191906000526020600020905b8154815290600101906020018083116108c957829003601f168201915b50505050508152602001906001019061083e565b505050508152602001600582015481525050915050610923565b8080600101915050610599565b505b919050565b60608060035460405190808252806020026020018201604052801561096757816020015b610954611823565b81526020019060019003908161094c5790505b50905060008090506000600190505b6003548111610d61573373ffffffffffffffffffffffffffffffffffffffff1660008083815260200190815260200160002060000160009054906101000a900473ffffffffffffffffffffffffffffffffffffffff1673ffffffffffffffffffffffffffffffffffffffff161415610d54576000808281526020019081526020016000206040518060c00160405290816000820160009054906101000a900473ffffffffffffffffffffffffffffffffffffffff1673ffffffffffffffffffffffffffffffffffffffff1673ffffffffffffffffffffffffffffffffffffffff168152602001600182018054600181600116156101000203166002900480601f016020809104026020016040519081016040528092919081815260200182805460018160011615610100020316600290048015610af45780601f10610ac957610100808354040283529160200191610af4565b820191906000526020600020905b815481529060010190602001808311610ad757829003601f168201915b50505050508152602001600282018054600181600116156101000203166002900480601f016020809104026020016040519081016040528092919081815260200182805460018160011615610100020316600290048015610b965780601f10610b6b57610100808354040283529160200191610b96565b820191906000526020600020905b815481529060010190602001808311610b7957829003601f168201915b50505050508152602001600382018054600181600116156101000203166002900480601f016020809104026020016040519081016040528092919081815260200182805460018160011615610100020316600290048015610c385780601f10610c0d57610100808354040283529160200191610c38565b820191906000526020600020905b815481529060010190602001808311610c1b57829003601f168201915b5050505050815260200160048201805480602002602001604051908101604052809291908181526020016000905b82821015610d22578382906000526020600020018054600181600116156101000203166002900480601f016020809104026020016040519081016040528092919081815260200182805460018160011615610100020316600290048015610d0e5780601f10610ce357610100808354040283529160200191610d0e565b820191906000526020600020905b815481529060010190602001808311610cf157829003601f168201915b505050505081526020019060010190610c66565b505050508152602001600582015481525050838381518110610d4057fe5b602002602001018190525081806001019250505b8080600101915050610976565b50819250505090565b600760009054906101000a900473ffffffffffffffffffffffffffffffffffffffff1673ffffffffffffffffffffffffffffffffffffffff163373ffffffffffffffffffffffffffffffffffffffff1614610dc457600080fd5b6005600081548092919060010191905055506040518060600160405280610dea8561152d565b73ffffffffffffffffffffffffffffffffffffffff1681526020018381526020018281525060016000600554815260200190815260200160002060008201518160000160006101000a81548173ffffffffffffffffffffffffffffffffffffffff021916908373ffffffffffffffffffffffffffffffffffffffff1602179055506020820151816001019080519060200190610e879291906118bb565b506040820151816002019080519060200190610ea49291906118bb565b50905050505050565b6000600760009054906101000a900473ffffffffffffffffffffffffffffffffffffffff16905090565b6060600760009054906101000a900473ffffffffffffffffffffffffffffffffffffffff1673ffffffffffffffffffffffffffffffffffffffff163373ffffffffffffffffffffffffffffffffffffffff1614610f3357600080fd5b6060600554604051908082528060200260200182016040528015610f7157816020015b610f5e61193b565b815260200190600190039081610f565790505b50905060008090506000600190505b600554811161116d57600160008281526020019081526020016000206040518060600160405290816000820160009054906101000a900473ffffffffffffffffffffffffffffffffffffffff1673ffffffffffffffffffffffffffffffffffffffff1673ffffffffffffffffffffffffffffffffffffffff168152602001600182018054600181600116156101000203166002900480601f0160208091040260200160405190810160405280929190818152602001828054600181600116156101000203166002900480156110965780601f1061106b57610100808354040283529160200191611096565b820191906000526020600020905b81548152906001019060200180831161107957829003601f168201915b50505050508152602001600282018054600181600116156101000203166002900480601f0160208091040260200160405190810160405280929190818152602001828054600181600116156101000203166002900480156111385780601f1061110d57610100808354040283529160200191611138565b820191906000526020600020905b81548152906001019060200180831161111b57829003601f168201915b50505050508152505083838151811061114d57fe5b602002602001018190525081806001019250508080600101915050610f80565b50819250505090565b6003600081548092919060010191905055506004600081548092919060010191905055506006600081548092919060010191905055506040518060c001604052803373ffffffffffffffffffffffffffffffffffffffff1681526020018881526020018781526020018681526020018581526020018481525060026000600454815260200190815260200160002060008201518160000160006101000a81548173ffffffffffffffffffffffffffffffffffffffff021916908373ffffffffffffffffffffffffffffffffffffffff16021790555060208201518160010190805190602001906112679291906118bb565b5060408201518160020190805190602001906112849291906118bb565b5060608201518160030190805190602001906112a19291906118bb565b5060808201518160040190805190602001906112be9291906118bb565b5060a08201518160050190805190602001906112db9291906118bb565b5090505033600080600354815260200190815260200160002060000160006101000a81548173ffffffffffffffffffffffffffffffffffffffff021916908373ffffffffffffffffffffffffffffffffffffffff1602179055508160008060035481526020019081526020016000206001019080519060200190611360929190611972565b50806000806003548152602001908152602001600020600201908051906020019061138c929190611972565b506040518060400160405280600781526020017f50656e64696e6700000000000000000000000000000000000000000000000000815250600080600354815260200190815260200160002060030190805190602001906113ed929190611972565b5060008060035481526020019081526020016000206004018060018154018082558091505090600182039060005260206000200160006040518060400160405280601d81526020017f436974697a656e207265676973746572656420636f6d706c61696e742e00000081525090919091509080519060200190611471929190611972565b505060065460008060035481526020019081526020016000206005018190555050505050505050565b6114a333611786565b15611521576000806000838152602001908152602001600020600401805490509050808060010191505060008083815260200190815260200160002060040183908060018154018082558091505090600182039060005260206000200160009091929091909150908051906020019061151d929190611972565b5050505b5050565b600033905090565b6000606082905060008090506000806000600290505b602a811015611779576101008402935084818151811061155f57fe5b602001015160f81c60f81b60f81c60ff16925084600182018151811061158157fe5b602001015160f81c60f81b60f81c60ff16915060618373ffffffffffffffffffffffffffffffffffffffff16101580156115d2575060668373ffffffffffffffffffffffffffffffffffffffff1611155b156115e25760578303925061167c565b60418373ffffffffffffffffffffffffffffffffffffffff1610158015611620575060468373ffffffffffffffffffffffffffffffffffffffff1611155b156116305760378303925061167b565b60308373ffffffffffffffffffffffffffffffffffffffff161015801561166e575060398373ffffffffffffffffffffffffffffffffffffffff1611155b1561167a576030830392505b5b5b60618273ffffffffffffffffffffffffffffffffffffffff16101580156116ba575060668273ffffffffffffffffffffffffffffffffffffffff1611155b156116ca57605782039150611764565b60418273ffffffffffffffffffffffffffffffffffffffff1610158015611708575060468273ffffffffffffffffffffffffffffffffffffffff1611155b1561171857603782039150611763565b60308273ffffffffffffffffffffffffffffffffffffffff1610158015611756575060398273ffffffffffffffffffffffffffffffffffffffff1611155b15611762576030820391505b5b5b81601084020184019350600281019050611543565b5082945050505050919050565b600080600190505b6005548111611818578273ffffffffffffffffffffffffffffffffffffffff166001600083815260200190815260200160002060000160009054906101000a900473ffffffffffffffffffffffffffffffffffffffff1673ffffffffffffffffffffffffffffffffffffffff16141561180b57600191505061181e565b808060010191505061178e565b50600090505b919050565b6040518060c00160405280600073ffffffffffffffffffffffffffffffffffffffff16815260200160608152602001606081526020016060815260200160608152602001600081525090565b6040518060c00160405280600073ffffffffffffffffffffffffffffffffffffffff16815260200160608152602001606081526020016060815260200160608152602001600081525090565b828054600181600116156101000203166002900490600052602060002090601f016020900481019282601f106118fc57805160ff191683800117855561192a565b8280016001018555821561192a579182015b8281111561192957825182559160200191906001019061190e565b5b50905061193791906119f2565b5090565b6040518060600160405280600073ffffffffffffffffffffffffffffffffffffffff16815260200160608152602001606081525090565b828054600181600116156101000203166002900490600052602060002090601f016020900481019282601f106119b357805160ff19168380011785556119e1565b828001600101855582156119e1579182015b828111156119e05782518255916020019190600101906119c5565b5b5090506119ee91906119f2565b5090565b611a1491905b80821115611a105760008160009055506001016119f8565b5090565b90565b600082601f830112611a2857600080fd5b8135611a3b611a368261211c565b6120ef565b91508082526020830160208301858383011115611a5757600080fd5b611a6283828461224b565b50505092915050565b600081359050611a7a8161229e565b92915050565b600080600060608486031215611a9557600080fd5b600084013567ffffffffffffffff811115611aaf57600080fd5b611abb86828701611a17565b935050602084013567ffffffffffffffff811115611ad857600080fd5b611ae486828701611a17565b925050604084013567ffffffffffffffff811115611b0157600080fd5b611b0d86828701611a17565b9150509250925092565b600080600080600080600060e0888a031215611b3257600080fd5b600088013567ffffffffffffffff811115611b4c57600080fd5b611b588a828b01611a17565b975050602088013567ffffffffffffffff811115611b7557600080fd5b611b818a828b01611a17565b965050604088013567ffffffffffffffff811115611b9e57600080fd5b611baa8a828b01611a17565b955050606088013567ffffffffffffffff811115611bc757600080fd5b611bd38a828b01611a17565b945050608088013567ffffffffffffffff811115611bf057600080fd5b611bfc8a828b01611a17565b93505060a088013567ffffffffffffffff811115611c1957600080fd5b611c258a828b01611a17565b92505060c088013567ffffffffffffffff811115611c4257600080fd5b611c4e8a828b01611a17565b91505092959891949750929550565b60008060408385031215611c7057600080fd5b600083013567ffffffffffffffff811115611c8a57600080fd5b611c9685828601611a17565b9250506020611ca785828601611a6b565b9150509250929050565b600060208284031215611cc357600080fd5b6000611cd184828501611a6b565b91505092915050565b6000611ce68383611e93565b905092915050565b6000611cfa8383611ecc565b905092915050565b6000611d0e8383611fc1565b905092915050565b611d1f8161220f565b82525050565b611d2e8161220f565b82525050565b6000611d3f82612178565b611d4981856121cb565b935083602082028501611d5b85612148565b8060005b85811015611d975784840389528151611d788582611cda565b9450611d83836121a4565b925060208a01995050600181019050611d5f565b50829750879550505050505092915050565b6000611db482612183565b611dbe81856121dc565b935083602082028501611dd085612158565b8060005b85811015611e0c5784840389528151611ded8582611cee565b9450611df8836121b1565b925060208a01995050600181019050611dd4565b50829750879550505050505092915050565b6000611e298261218e565b611e3381856121ed565b935083602082028501611e4585612168565b8060005b85811015611e815784840389528151611e628582611d02565b9450611e6d836121be565b925060208a01995050600181019050611e49565b50829750879550505050505092915050565b6000611e9e82612199565b611ea881856121fe565b9350611eb881856020860161225a565b611ec18161228d565b840191505092915050565b6000606083016000830151611ee46000860182611d16565b5060208301518482036020860152611efc8282611e93565b91505060408301518482036040860152611f168282611e93565b9150508091505092915050565b600060c083016000830151611f3b6000860182611d16565b5060208301518482036020860152611f538282611e93565b91505060408301518482036040860152611f6d8282611e93565b91505060608301518482036060860152611f878282611e93565b91505060808301518482036080860152611fa18282611d34565b91505060a0830151611fb660a086018261205f565b508091505092915050565b600060c083016000830151611fd96000860182611d16565b5060208301518482036020860152611ff18282611e93565b9150506040830151848203604086015261200b8282611e93565b915050606083015184820360608601526120258282611e93565b9150506080830151848203608086015261203f8282611d34565b91505060a083015161205460a086018261205f565b508091505092915050565b61206881612241565b82525050565b60006020820190506120836000830184611d25565b92915050565b600060208201905081810360008301526120a38184611da9565b905092915050565b600060208201905081810360008301526120c58184611e1e565b905092915050565b600060208201905081810360008301526120e78184611f23565b905092915050565b6000604051905081810181811067ffffffffffffffff8211171561211257600080fd5b8060405250919050565b600067ffffffffffffffff82111561213357600080fd5b601f19601f8301169050602081019050919050565b6000819050602082019050919050565b6000819050602082019050919050565b6000819050602082019050919050565b600081519050919050565b600081519050919050565b600081519050919050565b600081519050919050565b6000602082019050919050565b6000602082019050919050565b6000602082019050919050565b600082825260208201905092915050565b600082825260208201905092915050565b600082825260208201905092915050565b600082825260208201905092915050565b600061221a82612221565b9050919050565b600073ffffffffffffffffffffffffffffffffffffffff82169050919050565b6000819050919050565b82818337600083830152505050565b60005b8381101561227857808201518184015260208101905061225d565b83811115612287576000848401525b50505050565b6000601f19601f8301169050919050565b6122a781612241565b81146122b257600080fd5b5056fea365627a7a723158202ca2f84fa6e6acffb46eee9de1b0978b80bd836250e684373a532fd2b2fe93676c6578706572696d656e74616cf564736f6c634300050c0040",
  "source": "pragma solidity >=0.4.22 <0.6.0;\npragma experimental ABIEncoderV2;\ncontract Nitya{\n\n    struct Complainant{\n        address id;\n        string name;\n        string gender;\n        string addr;\n        string mobile;\n        string email;\n    }\n    struct Complaint{\n        address complainantID;\n        string subject;\n        string description;\n        string status;\n        string[] new_records;\n        uint complaint_ref_no;\n    }\n    struct Agency{\n        address id;\n        string name;\n        string location;\n    }\n    mapping(uint=>Complaint) private complaints;\n    mapping(uint=>Agency) private agencies;\n    mapping(uint=>Complainant) private complainants;\n    uint complaintCount;\n    uint complainantCount;\n    uint agencyCount;\n    uint complaint_ref_no;\n    address admin;\n    constructor() public {\n        admin = msg.sender;\n        complaintCount=0;\n        complainantCount=0;\n        complaint_ref_no=20190000;\n    }\n    \n    modifier onlyadmin() {\n    require(msg.sender == admin);\n    _;\n    }\n    \n    function isAuthorisedAgency(address addr) internal view returns (bool){\n         for(uint i=1;i<=agencyCount;i++){\n            if(agencies[i].id == addr){\n                return true;\n            }\n        }\n        return false;\n    }\n  \n    function parseAddr(string memory _a) internal pure returns (address _parsedAddress) {\n    bytes memory tmp = bytes(_a);\n    uint160 iaddr = 0;\n    uint160 b1;\n    uint160 b2;\n    for (uint i = 2; i < 2 + 2 * 20; i += 2) {\n        iaddr *= 256;\n        b1 = uint160(uint8(tmp[i]));\n        b2 = uint160(uint8(tmp[i + 1]));\n        if ((b1 >= 97) && (b1 <= 102)) {\n            b1 -= 87;\n        } else if ((b1 >= 65) && (b1 <= 70)) {\n            b1 -= 55;\n        } else if ((b1 >= 48) && (b1 <= 57)) {\n            b1 -= 48;\n        }\n        if ((b2 >= 97) && (b2 <= 102)) {\n            b2 -= 87;\n        } else if ((b2 >= 65) && (b2 <= 70)) {\n            b2 -= 55;\n        } else if ((b2 >= 48) && (b2 <= 57)) {\n            b2 -= 48;\n        }\n        iaddr += (b1 * 16 + b2);\n    }\n    return address(iaddr);\n}\n\n    function getAdminAddress() public view returns(address){\n        return admin;\n    }\n    \n    function getOwnAddress() public view returns(address){\n        return msg.sender;\n    }\n    \n    function registerComplaint( string memory name, string memory gender,string memory addr,string memory mobile,string memory email,string memory subject, string memory description) public {\n        complaintCount++;\n        complainantCount++;\n        complaint_ref_no++;\n        complainants[complainantCount]=Complainant(msg.sender,name,gender,addr,mobile,email);\n        complaints[complaintCount].complainantID=msg.sender;\n        complaints[complaintCount].subject=subject;\n        complaints[complaintCount].description=description;\n        complaints[complaintCount].status=\"Pending\";\n        complaints[complaintCount].new_records.push(\"Citizen registered complaint.\");\n        complaints[complaintCount].complaint_ref_no=complaint_ref_no;\n    }\n    \n    function getAllComplaints() public view returns(Complaint[] memory){\n        Complaint[] memory all_complaints=new Complaint[](complaintCount);\n        uint count=0;\n        for(uint i=1;i<=complaintCount;i++){\n                all_complaints[count]=complaints[i];\n                count++;\n        }\n        return all_complaints;\n    }\n\n    function getMyComplaints() public view returns(Complaint[] memory){\n        Complaint[] memory my_complaints=new Complaint[](complaintCount);\n        uint count=0;\n        for(uint i=1;i<=complaintCount;i++){\n            if(complaints[i].complainantID==msg.sender){\n                my_complaints[count]=complaints[i];\n                count++;\n            }\n        }\n        return my_complaints;\n    }\n    \n    function getComplaintByRef(uint rid) public view returns(Complaint memory){\n        for(uint i=1;i<complaintCount;i++){\n            if(complaints[i].complaint_ref_no==rid){\n                return complaints[i];\n            }\n        }\n    }\n    \n    function verifyAgency(string memory id,string memory name, string memory location) public onlyadmin {\n        agencyCount++;\n        agencies[agencyCount]=Agency(parseAddr(id),name,location);\n    }\n    \n    function getAllAgencies() public onlyadmin view returns(Agency[] memory){\n        Agency[] memory all_agencies=new Agency[](agencyCount);\n        uint count=0;\n        for(uint i=1;i<=agencyCount;i++){\n                all_agencies[count]=agencies[i];\n                count++;\n        }\n        return all_agencies;\n    }    \n    \n    function updateComplaint(string memory new_data, uint cid) public {\n        if(isAuthorisedAgency(msg.sender)){\n               uint len= complaints[cid].new_records.length;\n               len++;\n               complaints[cid].new_records.push(new_data);\n        }\n    }\n    \n    \n    \n}",
  "sourcePath": "/Users/sarvottamkumar/Desktop/Github/nitya/contracts/Nitya.sol",
  "compiler": {
    "name": "solc",
    "version": "0.5.12+commit.7709ece9.Emscripten.clang"
  },
  "schemaVersion": "3.0.19",
  "updatedAt": "2019-11-29T11:26:43.131Z",
  "devdoc": {
    "methods": {}
  },
  "userdoc": {
    "methods": {}
  }
}