{
  "contractName": "Nitya",
  "abi": [
    {
      "inputs": [],
      "payable": false,
      "stateMutability": "nonpayable",
      "type": "constructor"
    },
    {
      "constant": true,
      "inputs": [],
      "name": "getAdminAddress",
      "outputs": [
        {
          "internalType": "address",
          "name": "",
          "type": "address"
        }
      ],
      "payable": false,
      "stateMutability": "view",
      "type": "function"
    },
    {
      "constant": true,
      "inputs": [],
      "name": "getOwnAddress",
      "outputs": [
        {
          "internalType": "address",
          "name": "",
          "type": "address"
        }
      ],
      "payable": false,
      "stateMutability": "view",
      "type": "function"
    },
    {
      "constant": false,
      "inputs": [
        {
          "internalType": "string",
          "name": "name",
          "type": "string"
        },
        {
          "internalType": "string",
          "name": "gender",
          "type": "string"
        },
        {
          "internalType": "string",
          "name": "addr",
          "type": "string"
        },
        {
          "internalType": "string",
          "name": "mobile",
          "type": "string"
        },
        {
          "internalType": "string",
          "name": "email",
          "type": "string"
        },
        {
          "internalType": "string",
          "name": "subject",
          "type": "string"
        },
        {
          "internalType": "string",
          "name": "description",
          "type": "string"
        }
      ],
      "name": "registerComplaint",
      "outputs": [],
      "payable": false,
      "stateMutability": "nonpayable",
      "type": "function"
    },
    {
      "constant": true,
      "inputs": [],
      "name": "getAllComplaints",
      "outputs": [
        {
          "components": [
            {
              "internalType": "address",
              "name": "complainantID",
              "type": "address"
            },
            {
              "internalType": "string",
              "name": "subject",
              "type": "string"
            },
            {
              "internalType": "string",
              "name": "description",
              "type": "string"
            },
            {
              "internalType": "string",
              "name": "status",
              "type": "string"
            },
            {
              "internalType": "string[]",
              "name": "new_records",
              "type": "string[]"
            },
            {
              "internalType": "uint256",
              "name": "complaint_ref_no",
              "type": "uint256"
            }
          ],
          "internalType": "struct Nitya.Complaint[]",
          "name": "",
          "type": "tuple[]"
        }
      ],
      "payable": false,
      "stateMutability": "view",
      "type": "function"
    },
    {
      "constant": true,
      "inputs": [],
      "name": "getMyComplaints",
      "outputs": [
        {
          "components": [
            {
              "internalType": "address",
              "name": "complainantID",
              "type": "address"
            },
            {
              "internalType": "string",
              "name": "subject",
              "type": "string"
            },
            {
              "internalType": "string",
              "name": "description",
              "type": "string"
            },
            {
              "internalType": "string",
              "name": "status",
              "type": "string"
            },
            {
              "internalType": "string[]",
              "name": "new_records",
              "type": "string[]"
            },
            {
              "internalType": "uint256",
              "name": "complaint_ref_no",
              "type": "uint256"
            }
          ],
          "internalType": "struct Nitya.Complaint[]",
          "name": "",
          "type": "tuple[]"
        }
      ],
      "payable": false,
      "stateMutability": "view",
      "type": "function"
    },
    {
      "constant": true,
      "inputs": [
        {
          "internalType": "uint256",
          "name": "rid",
          "type": "uint256"
        }
      ],
      "name": "getComplaintByRef",
      "outputs": [
        {
          "components": [
            {
              "internalType": "address",
              "name": "complainantID",
              "type": "address"
            },
            {
              "internalType": "string",
              "name": "subject",
              "type": "string"
            },
            {
              "internalType": "string",
              "name": "description",
              "type": "string"
            },
            {
              "internalType": "string",
              "name": "status",
              "type": "string"
            },
            {
              "internalType": "string[]",
              "name": "new_records",
              "type": "string[]"
            },
            {
              "internalType": "uint256",
              "name": "complaint_ref_no",
              "type": "uint256"
            }
          ],
          "internalType": "struct Nitya.Complaint",
          "name": "",
          "type": "tuple"
        }
      ],
      "payable": false,
      "stateMutability": "view",
      "type": "function"
    },
    {
      "constant": false,
      "inputs": [
        {
          "internalType": "string",
          "name": "id",
          "type": "string"
        },
        {
          "internalType": "string",
          "name": "name",
          "type": "string"
        },
        {
          "internalType": "string",
          "name": "agency_type",
          "type": "string"
        },
        {
          "internalType": "string",
          "name": "assigned_person",
          "type": "string"
        },
        {
          "internalType": "string",
          "name": "location",
          "type": "string"
        }
      ],
      "name": "verifyAgency",
      "outputs": [],
      "payable": false,
      "stateMutability": "nonpayable",
      "type": "function"
    },
    {
      "constant": true,
      "inputs": [],
      "name": "getAllAgencies",
      "outputs": [
        {
          "components": [
            {
              "internalType": "address",
              "name": "id",
              "type": "address"
            },
            {
              "internalType": "string",
              "name": "name",
              "type": "string"
            },
            {
              "internalType": "string",
              "name": "agency_type",
              "type": "string"
            },
            {
              "internalType": "string",
              "name": "assigned_person",
              "type": "string"
            },
            {
              "internalType": "string",
              "name": "location",
              "type": "string"
            }
          ],
          "internalType": "struct Nitya.Agency[]",
          "name": "",
          "type": "tuple[]"
        }
      ],
      "payable": false,
      "stateMutability": "view",
      "type": "function"
    },
    {
      "constant": false,
      "inputs": [
        {
          "internalType": "string",
          "name": "new_data",
          "type": "string"
        },
        {
          "internalType": "uint256",
          "name": "rid",
          "type": "uint256"
        }
      ],
      "name": "updateComplaint",
      "outputs": [],
      "payable": false,
      "stateMutability": "nonpayable",
      "type": "function"
    }
  ],
  "bytecode": "0x608060405234801561001057600080fd5b5033600760006101000a81548173ffffffffffffffffffffffffffffffffffffffff021916908373ffffffffffffffffffffffffffffffffffffffff16021790555060006003819055506000600481905550630134133060068190555061264e8061007c6000396000f3fe608060405234801561001057600080fd5b50600436106100935760003560e01c8063b2e6b91211610066578063b2e6b91214610120578063c3fb77151461013e578063ce6553df1461015c578063dfb39d7d14610178578063fca8631d1461019457610093565b80630dac9539146100985780634fc66471146100b6578063666cc521146100d2578063767d006714610102575b600080fd5b6100a06101b2565b6040516100ad9190612401565b60405180910390f35b6100d060048036036100cb9190810190611d4a565b61058a565b005b6100ec60048036036100e79190810190611fd3565b610715565b6040516100f99190612423565b60405180910390f35b61010a610ab3565b6040516101179190612401565b60405180910390f35b610128610ef5565b60405161013591906123c4565b60405180910390f35b610146610f1f565b60405161015391906123df565b60405180910390f35b61017660048036036101719190810190611e39565b611302565b005b610192600480360361018d9190810190611f7f565b611626565b005b61019c6117e1565b6040516101a991906123c4565b60405180910390f35b6060806003546040519080825280602002602001820160405280156101f157816020015b6101de611adf565b8152602001906001900390816101d65790505b50905060008090506000600190505b6003548111610581576000808281526020019081526020016000206040518060c00160405290816000820160009054906101000a900473ffffffffffffffffffffffffffffffffffffffff1673ffffffffffffffffffffffffffffffffffffffff1673ffffffffffffffffffffffffffffffffffffffff168152602001600182018054600181600116156101000203166002900480601f0160208091040260200160405190810160405280929190818152602001828054600181600116156101000203166002900480156103155780601f106102ea57610100808354040283529160200191610315565b820191906000526020600020905b8154815290600101906020018083116102f857829003601f168201915b50505050508152602001600282018054600181600116156101000203166002900480601f0160208091040260200160405190810160405280929190818152602001828054600181600116156101000203166002900480156103b75780601f1061038c576101008083540402835291602001916103b7565b820191906000526020600020905b81548152906001019060200180831161039a57829003601f168201915b50505050508152602001600382018054600181600116156101000203166002900480601f0160208091040260200160405190810160405280929190818152602001828054600181600116156101000203166002900480156104595780601f1061042e57610100808354040283529160200191610459565b820191906000526020600020905b81548152906001019060200180831161043c57829003601f168201915b5050505050815260200160048201805480602002602001604051908101604052809291908181526020016000905b82821015610543578382906000526020600020018054600181600116156101000203166002900480601f01602080910402602001604051908101604052809291908181526020018280546001816001161561010002031660029004801561052f5780601f106105045761010080835404028352916020019161052f565b820191906000526020600020905b81548152906001019060200180831161051257829003601f168201915b505050505081526020019060010190610487565b50505050815260200160058201548152505083838151811061056157fe5b602002602001018190525081806001019250508080600101915050610200565b50819250505090565b600760009054906101000a900473ffffffffffffffffffffffffffffffffffffffff1673ffffffffffffffffffffffffffffffffffffffff163373ffffffffffffffffffffffffffffffffffffffff16146105e457600080fd5b6005600081548092919060010191905055506040518060a0016040528061060a876117e9565b73ffffffffffffffffffffffffffffffffffffffff1681526020018581526020018481526020018381526020018281525060016000600554815260200190815260200160002060008201518160000160006101000a81548173ffffffffffffffffffffffffffffffffffffffff021916908373ffffffffffffffffffffffffffffffffffffffff16021790555060208201518160010190805190602001906106b3929190611b2b565b5060408201518160020190805190602001906106d0929190611b2b565b5060608201518160030190805190602001906106ed929190611b2b565b50608082015181600401908051906020019061070a929190611b2b565b509050505050505050565b61071d611bab565b6000600190505b600354811015610aac5782600080838152602001908152602001600020600501541415610a9f576000808281526020019081526020016000206040518060c00160405290816000820160009054906101000a900473ffffffffffffffffffffffffffffffffffffffff1673ffffffffffffffffffffffffffffffffffffffff1673ffffffffffffffffffffffffffffffffffffffff168152602001600182018054600181600116156101000203166002900480601f0160208091040260200160405190810160405280929190818152602001828054600181600116156101000203166002900480156108575780601f1061082c57610100808354040283529160200191610857565b820191906000526020600020905b81548152906001019060200180831161083a57829003601f168201915b50505050508152602001600282018054600181600116156101000203166002900480601f0160208091040260200160405190810160405280929190818152602001828054600181600116156101000203166002900480156108f95780601f106108ce576101008083540402835291602001916108f9565b820191906000526020600020905b8154815290600101906020018083116108dc57829003601f168201915b50505050508152602001600382018054600181600116156101000203166002900480601f01602080910402602001604051908101604052809291908181526020018280546001816001161561010002031660029004801561099b5780601f106109705761010080835404028352916020019161099b565b820191906000526020600020905b81548152906001019060200180831161097e57829003601f168201915b5050505050815260200160048201805480602002602001604051908101604052809291908181526020016000905b82821015610a85578382906000526020600020018054600181600116156101000203166002900480601f016020809104026020016040519081016040528092919081815260200182805460018160011615610100020316600290048015610a715780601f10610a4657610100808354040283529160200191610a71565b820191906000526020600020905b815481529060010190602001808311610a5457829003601f168201915b5050505050815260200190600101906109c9565b505050508152602001600582015481525050915050610aae565b8080600101915050610724565b505b919050565b606080600354604051908082528060200260200182016040528015610af257816020015b610adf611adf565b815260200190600190039081610ad75790505b50905060008090506000600190505b6003548111610eec573373ffffffffffffffffffffffffffffffffffffffff1660008083815260200190815260200160002060000160009054906101000a900473ffffffffffffffffffffffffffffffffffffffff1673ffffffffffffffffffffffffffffffffffffffff161415610edf576000808281526020019081526020016000206040518060c00160405290816000820160009054906101000a900473ffffffffffffffffffffffffffffffffffffffff1673ffffffffffffffffffffffffffffffffffffffff1673ffffffffffffffffffffffffffffffffffffffff168152602001600182018054600181600116156101000203166002900480601f016020809104026020016040519081016040528092919081815260200182805460018160011615610100020316600290048015610c7f5780601f10610c5457610100808354040283529160200191610c7f565b820191906000526020600020905b815481529060010190602001808311610c6257829003601f168201915b50505050508152602001600282018054600181600116156101000203166002900480601f016020809104026020016040519081016040528092919081815260200182805460018160011615610100020316600290048015610d215780601f10610cf657610100808354040283529160200191610d21565b820191906000526020600020905b815481529060010190602001808311610d0457829003601f168201915b50505050508152602001600382018054600181600116156101000203166002900480601f016020809104026020016040519081016040528092919081815260200182805460018160011615610100020316600290048015610dc35780601f10610d9857610100808354040283529160200191610dc3565b820191906000526020600020905b815481529060010190602001808311610da657829003601f168201915b5050505050815260200160048201805480602002602001604051908101604052809291908181526020016000905b82821015610ead578382906000526020600020018054600181600116156101000203166002900480601f016020809104026020016040519081016040528092919081815260200182805460018160011615610100020316600290048015610e995780601f10610e6e57610100808354040283529160200191610e99565b820191906000526020600020905b815481529060010190602001808311610e7c57829003601f168201915b505050505081526020019060010190610df1565b505050508152602001600582015481525050838381518110610ecb57fe5b602002602001018190525081806001019250505b8080600101915050610b01565b50819250505090565b6000600760009054906101000a900473ffffffffffffffffffffffffffffffffffffffff16905090565b6060600760009054906101000a900473ffffffffffffffffffffffffffffffffffffffff1673ffffffffffffffffffffffffffffffffffffffff163373ffffffffffffffffffffffffffffffffffffffff1614610f7b57600080fd5b6060600554604051908082528060200260200182016040528015610fb957816020015b610fa6611bf7565b815260200190600190039081610f9e5790505b50905060008090506000600190505b60055481116112f957600160008281526020019081526020016000206040518060a00160405290816000820160009054906101000a900473ffffffffffffffffffffffffffffffffffffffff1673ffffffffffffffffffffffffffffffffffffffff1673ffffffffffffffffffffffffffffffffffffffff168152602001600182018054600181600116156101000203166002900480601f0160208091040260200160405190810160405280929190818152602001828054600181600116156101000203166002900480156110de5780601f106110b3576101008083540402835291602001916110de565b820191906000526020600020905b8154815290600101906020018083116110c157829003601f168201915b50505050508152602001600282018054600181600116156101000203166002900480601f0160208091040260200160405190810160405280929190818152602001828054600181600116156101000203166002900480156111805780601f1061115557610100808354040283529160200191611180565b820191906000526020600020905b81548152906001019060200180831161116357829003601f168201915b50505050508152602001600382018054600181600116156101000203166002900480601f0160208091040260200160405190810160405280929190818152602001828054600181600116156101000203166002900480156112225780601f106111f757610100808354040283529160200191611222565b820191906000526020600020905b81548152906001019060200180831161120557829003601f168201915b50505050508152602001600482018054600181600116156101000203166002900480601f0160208091040260200160405190810160405280929190818152602001828054600181600116156101000203166002900480156112c45780601f10611299576101008083540402835291602001916112c4565b820191906000526020600020905b8154815290600101906020018083116112a757829003601f168201915b5050505050815250508383815181106112d957fe5b602002602001018190525081806001019250508080600101915050610fc8565b50819250505090565b6003600081548092919060010191905055506004600081548092919060010191905055506006600081548092919060010191905055506040518060c001604052803373ffffffffffffffffffffffffffffffffffffffff1681526020018881526020018781526020018681526020018581526020018481525060026000600454815260200190815260200160002060008201518160000160006101000a81548173ffffffffffffffffffffffffffffffffffffffff021916908373ffffffffffffffffffffffffffffffffffffffff16021790555060208201518160010190805190602001906113f3929190611b2b565b506040820151816002019080519060200190611410929190611b2b565b50606082015181600301908051906020019061142d929190611b2b565b50608082015181600401908051906020019061144a929190611b2b565b5060a0820151816005019080519060200190611467929190611b2b565b5090505033600080600354815260200190815260200160002060000160006101000a81548173ffffffffffffffffffffffffffffffffffffffff021916908373ffffffffffffffffffffffffffffffffffffffff16021790555081600080600354815260200190815260200160002060010190805190602001906114ec929190611c3c565b508060008060035481526020019081526020016000206002019080519060200190611518929190611c3c565b506040518060400160405280600781526020017f50656e64696e670000000000000000000000000000000000000000000000000081525060008060035481526020019081526020016000206003019080519060200190611579929190611c3c565b5060008060035481526020019081526020016000206004018060018154018082558091505090600182039060005260206000200160006040518060400160405280601d81526020017f436974697a656e207265676973746572656420636f6d706c61696e742e000000815250909190915090805190602001906115fd929190611c3c565b505060065460008060035481526020019081526020016000206005018190555050505050505050565b6001151561163333611a42565b15151461163f57600080fd5b60008090505b6003548110156117dc57816000808381526020019081526020016000206005015414156117cf57606060146040519080825280601f01601f1916602001820160405280156116a25781602001600182028038833980820191505090505b50905060008090505b6014811015611728578060130360080260020a3373ffffffffffffffffffffffffffffffffffffffff16816116dc57fe5b0460f81b8282815181106116ec57fe5b60200101907effffffffffffffffffffffffffffffffffffffffffffffffffffffffffffff1916908160001a90535080806001019150506116ab565b50600080838152602001908152602001600020600401819080600181540180825580915050906001820390600052602060002001600090919290919091509080519060200190611779929190611c3c565b50506000808381526020019081526020016000206004018490806001815401808255809150509060018203906000526020600020016000909192909190915090805190602001906117cb929190611c3c565b5050505b8080600101915050611645565b505050565b600033905090565b6000606082905060008090506000806000600290505b602a811015611a35576101008402935084818151811061181b57fe5b602001015160f81c60f81b60f81c60ff16925084600182018151811061183d57fe5b602001015160f81c60f81b60f81c60ff16915060618373ffffffffffffffffffffffffffffffffffffffff161015801561188e575060668373ffffffffffffffffffffffffffffffffffffffff1611155b1561189e57605783039250611938565b60418373ffffffffffffffffffffffffffffffffffffffff16101580156118dc575060468373ffffffffffffffffffffffffffffffffffffffff1611155b156118ec57603783039250611937565b60308373ffffffffffffffffffffffffffffffffffffffff161015801561192a575060398373ffffffffffffffffffffffffffffffffffffffff1611155b15611936576030830392505b5b5b60618273ffffffffffffffffffffffffffffffffffffffff1610158015611976575060668273ffffffffffffffffffffffffffffffffffffffff1611155b1561198657605782039150611a20565b60418273ffffffffffffffffffffffffffffffffffffffff16101580156119c4575060468273ffffffffffffffffffffffffffffffffffffffff1611155b156119d457603782039150611a1f565b60308273ffffffffffffffffffffffffffffffffffffffff1610158015611a12575060398273ffffffffffffffffffffffffffffffffffffffff1611155b15611a1e576030820391505b5b5b816010840201840193506002810190506117ff565b5082945050505050919050565b600080600190505b6005548111611ad4578273ffffffffffffffffffffffffffffffffffffffff166001600083815260200190815260200160002060000160009054906101000a900473ffffffffffffffffffffffffffffffffffffffff1673ffffffffffffffffffffffffffffffffffffffff161415611ac7576001915050611ada565b8080600101915050611a4a565b50600090505b919050565b6040518060c00160405280600073ffffffffffffffffffffffffffffffffffffffff16815260200160608152602001606081526020016060815260200160608152602001600081525090565b828054600181600116156101000203166002900490600052602060002090601f016020900481019282601f10611b6c57805160ff1916838001178555611b9a565b82800160010185558215611b9a579182015b82811115611b99578251825591602001919060010190611b7e565b5b509050611ba79190611cbc565b5090565b6040518060c00160405280600073ffffffffffffffffffffffffffffffffffffffff16815260200160608152602001606081526020016060815260200160608152602001600081525090565b6040518060a00160405280600073ffffffffffffffffffffffffffffffffffffffff168152602001606081526020016060815260200160608152602001606081525090565b828054600181600116156101000203166002900490600052602060002090601f016020900481019282601f10611c7d57805160ff1916838001178555611cab565b82800160010185558215611cab579182015b82811115611caa578251825591602001919060010190611c8f565b5b509050611cb89190611cbc565b5090565b611cde91905b80821115611cda576000816000905550600101611cc2565b5090565b90565b600082601f830112611cf257600080fd5b8135611d05611d0082612472565b612445565b91508082526020830160208301858383011115611d2157600080fd5b611d2c8382846125a1565b50505092915050565b600081359050611d44816125f4565b92915050565b600080600080600060a08688031215611d6257600080fd5b600086013567ffffffffffffffff811115611d7c57600080fd5b611d8888828901611ce1565b955050602086013567ffffffffffffffff811115611da557600080fd5b611db188828901611ce1565b945050604086013567ffffffffffffffff811115611dce57600080fd5b611dda88828901611ce1565b935050606086013567ffffffffffffffff811115611df757600080fd5b611e0388828901611ce1565b925050608086013567ffffffffffffffff811115611e2057600080fd5b611e2c88828901611ce1565b9150509295509295909350565b600080600080600080600060e0888a031215611e5457600080fd5b600088013567ffffffffffffffff811115611e6e57600080fd5b611e7a8a828b01611ce1565b975050602088013567ffffffffffffffff811115611e9757600080fd5b611ea38a828b01611ce1565b965050604088013567ffffffffffffffff811115611ec057600080fd5b611ecc8a828b01611ce1565b955050606088013567ffffffffffffffff811115611ee957600080fd5b611ef58a828b01611ce1565b945050608088013567ffffffffffffffff811115611f1257600080fd5b611f1e8a828b01611ce1565b93505060a088013567ffffffffffffffff811115611f3b57600080fd5b611f478a828b01611ce1565b92505060c088013567ffffffffffffffff811115611f6457600080fd5b611f708a828b01611ce1565b91505092959891949750929550565b60008060408385031215611f9257600080fd5b600083013567ffffffffffffffff811115611fac57600080fd5b611fb885828601611ce1565b9250506020611fc985828601611d35565b9150509250929050565b600060208284031215611fe557600080fd5b6000611ff384828501611d35565b91505092915050565b600061200883836121b5565b905092915050565b600061201c83836121ee565b905092915050565b60006120308383612317565b905092915050565b61204181612565565b82525050565b61205081612565565b82525050565b6000612061826124ce565b61206b8185612521565b93508360208202850161207d8561249e565b8060005b858110156120b9578484038952815161209a8582611ffc565b94506120a5836124fa565b925060208a01995050600181019050612081565b50829750879550505050505092915050565b60006120d6826124d9565b6120e08185612532565b9350836020820285016120f2856124ae565b8060005b8581101561212e578484038952815161210f8582612010565b945061211a83612507565b925060208a019950506001810190506120f6565b50829750879550505050505092915050565b600061214b826124e4565b6121558185612543565b935083602082028501612167856124be565b8060005b858110156121a357848403895281516121848582612024565b945061218f83612514565b925060208a0199505060018101905061216b565b50829750879550505050505092915050565b60006121c0826124ef565b6121ca8185612554565b93506121da8185602086016125b0565b6121e3816125e3565b840191505092915050565b600060a0830160008301516122066000860182612038565b506020830151848203602086015261221e82826121b5565b9150506040830151848203604086015261223882826121b5565b9150506060830151848203606086015261225282826121b5565b9150506080830151848203608086015261226c82826121b5565b9150508091505092915050565b600060c0830160008301516122916000860182612038565b50602083015184820360208601526122a982826121b5565b915050604083015184820360408601526122c382826121b5565b915050606083015184820360608601526122dd82826121b5565b915050608083015184820360808601526122f78282612056565b91505060a083015161230c60a08601826123b5565b508091505092915050565b600060c08301600083015161232f6000860182612038565b506020830151848203602086015261234782826121b5565b9150506040830151848203604086015261236182826121b5565b9150506060830151848203606086015261237b82826121b5565b915050608083015184820360808601526123958282612056565b91505060a08301516123aa60a08601826123b5565b508091505092915050565b6123be81612597565b82525050565b60006020820190506123d96000830184612047565b92915050565b600060208201905081810360008301526123f981846120cb565b905092915050565b6000602082019050818103600083015261241b8184612140565b905092915050565b6000602082019050818103600083015261243d8184612279565b905092915050565b6000604051905081810181811067ffffffffffffffff8211171561246857600080fd5b8060405250919050565b600067ffffffffffffffff82111561248957600080fd5b601f19601f8301169050602081019050919050565b6000819050602082019050919050565b6000819050602082019050919050565b6000819050602082019050919050565b600081519050919050565b600081519050919050565b600081519050919050565b600081519050919050565b6000602082019050919050565b6000602082019050919050565b6000602082019050919050565b600082825260208201905092915050565b600082825260208201905092915050565b600082825260208201905092915050565b600082825260208201905092915050565b600061257082612577565b9050919050565b600073ffffffffffffffffffffffffffffffffffffffff82169050919050565b6000819050919050565b82818337600083830152505050565b60005b838110156125ce5780820151818401526020810190506125b3565b838111156125dd576000848401525b50505050565b6000601f19601f8301169050919050565b6125fd81612597565b811461260857600080fd5b5056fea365627a7a72315820d8601fb95801660dd8e0347a80a85a197a724a6d782b92a5aee85803b6e61a0a6c6578706572696d656e74616cf564736f6c634300050c0040",
  "source": "pragma solidity >=0.4.22 <0.6.0;\npragma experimental ABIEncoderV2;\n\n\ncontract Nitya{\n\n    struct Complainant{\n        address id;\n        string name;\n        string gender;\n        string addr;\n        string mobile;\n        string email;\n    }\n    struct Complaint{\n        address complainantID;\n        string subject;\n        string description;\n        string status;\n        string[] new_records;\n        uint complaint_ref_no;\n    }\n    struct Agency{\n        address id;\n        string name;\n        string agency_type;\n        string assigned_person;\n        string location;\n    }\n    mapping(uint=>Complaint) private complaints;\n    mapping(uint=>Agency) private agencies;\n    mapping(uint=>Complainant) private complainants;\n    uint complaintCount;\n    uint complainantCount;\n    uint agencyCount;\n    uint complaint_ref_no;\n    address admin;\n\n    constructor() public {\n        admin = msg.sender;\n        complaintCount=0;\n        complainantCount=0;\n        complaint_ref_no=20190000;\n    }\n    \n    modifier onlyadmin() {\n        require(msg.sender == admin);\n        _;\n    }\n    \n    function isAuthorisedAgency(address addr) internal view returns (bool){\n         for(uint i=1;i<=agencyCount;i++){\n            if(agencies[i].id == addr){\n                return true;\n            }\n        }\n        return false;\n    }\n  \n    function parseAddr(string memory _a) internal pure returns (address _parsedAddress) {\n    bytes memory tmp = bytes(_a);\n    uint160 iaddr = 0;\n    uint160 b1;\n    uint160 b2;\n    for (uint i = 2; i < 2 + 2 * 20; i += 2) {\n        iaddr *= 256;\n        b1 = uint160(uint8(tmp[i]));\n        b2 = uint160(uint8(tmp[i + 1]));\n        if ((b1 >= 97) && (b1 <= 102)) {\n            b1 -= 87;\n        } else if ((b1 >= 65) && (b1 <= 70)) {\n            b1 -= 55;\n        } else if ((b1 >= 48) && (b1 <= 57)) {\n            b1 -= 48;\n        }\n        if ((b2 >= 97) && (b2 <= 102)) {\n            b2 -= 87;\n        } else if ((b2 >= 65) && (b2 <= 70)) {\n            b2 -= 55;\n        } else if ((b2 >= 48) && (b2 <= 57)) {\n            b2 -= 48;\n        }\n        iaddr += (b1 * 16 + b2);\n    }\n    return address(iaddr);\n}\n\n    function getAdminAddress() public view returns(address){\n        return admin;\n    }\n    \n    function getOwnAddress() public view returns(address){\n        return msg.sender;\n    }\n    \n    function registerComplaint( string memory name, string memory gender,string memory addr,string memory mobile,string memory email,string memory subject, string memory description) public {\n        complaintCount++;\n        complainantCount++;\n        complaint_ref_no++;\n        complainants[complainantCount]=Complainant(msg.sender,name,gender,addr,mobile,email);\n        complaints[complaintCount].complainantID=msg.sender;\n        complaints[complaintCount].subject=subject;\n        complaints[complaintCount].description=description;\n        complaints[complaintCount].status=\"Pending\";\n        complaints[complaintCount].new_records.push(\"Citizen registered complaint.\");\n        complaints[complaintCount].complaint_ref_no=complaint_ref_no;\n    }\n    \n    function getAllComplaints() public view returns(Complaint[] memory){\n        Complaint[] memory all_complaints=new Complaint[](complaintCount);\n        uint count=0;\n        for(uint i=1;i<=complaintCount;i++){\n                all_complaints[count]=complaints[i];\n                count++;\n        }\n        return all_complaints;\n    }\n\n    function getMyComplaints() public view returns(Complaint[] memory){\n        Complaint[] memory my_complaints=new Complaint[](complaintCount);\n        uint count=0;\n        for(uint i=1;i<=complaintCount;i++){\n            if(complaints[i].complainantID==msg.sender){\n                my_complaints[count]=complaints[i];\n                count++;\n            }\n        }\n        return my_complaints;\n    }\n    \n    function getComplaintByRef(uint rid) public view returns(Complaint memory){\n        for(uint i=1;i<complaintCount;i++){\n            if(complaints[i].complaint_ref_no==rid){\n                return complaints[i];\n            }\n        }\n    }\n    \n    function verifyAgency(string memory id,string memory name,string memory agency_type, string memory assigned_person,string memory location) public onlyadmin {\n        agencyCount++;\n        agencies[agencyCount]=Agency(parseAddr(id),name,agency_type, assigned_person,location);\n    }\n    \n    function getAllAgencies() public onlyadmin view returns(Agency[] memory){\n        Agency[] memory all_agencies=new Agency[](agencyCount);\n        uint count=0;\n        for(uint i=1;i<=agencyCount;i++){\n                all_agencies[count]=agencies[i];\n                count++;\n        }\n        return all_agencies;\n    }    \n    \n    function updateComplaint(string memory new_data, uint rid) public {\n        require(isAuthorisedAgency(msg.sender)==true);\n            for(uint i=0;i<complaintCount;i++){\n                if(complaints[i].complaint_ref_no==rid){\n                    bytes memory b = new bytes(20);\n                    for (uint j = 0; j < 20; j++){\n                        b[j] = byte(uint8(uint(msg.sender) / (2**(8*(19 - j)))));\n                    }\n                    complaints[i].new_records.push(string(b));\n                    complaints[i].new_records.push(new_data);\n                }\n            }\n        \n    }\n    \n}",
  "sourcePath": "/Users/sarvottamkumar/Desktop/Github/nitya/contracts/Nitya.sol",
  "compiler": {
    "name": "solc",
    "version": "0.5.12+commit.7709ece9.Emscripten.clang"
  },
  "schemaVersion": "3.0.19",
  "updatedAt": "2020-04-05T17:12:34.823Z",
  "networkType": "ethereum",
  "devdoc": {
    "methods": {}
  },
  "userdoc": {
    "methods": {}
  }
}