{
  "contractName": "Nitya",
  "abi": [
    {
      "inputs": [],
      "payable": false,
      "stateMutability": "nonpayable",
      "type": "constructor"
    },
    {
      "constant": true,
      "inputs": [],
      "name": "getAdminAddress",
      "outputs": [
        {
          "internalType": "address",
          "name": "",
          "type": "address"
        }
      ],
      "payable": false,
      "stateMutability": "view",
      "type": "function"
    },
    {
      "constant": true,
      "inputs": [],
      "name": "getOwnAddress",
      "outputs": [
        {
          "internalType": "address",
          "name": "",
          "type": "address"
        }
      ],
      "payable": false,
      "stateMutability": "view",
      "type": "function"
    },
    {
      "constant": false,
      "inputs": [
        {
          "internalType": "string",
          "name": "name",
          "type": "string"
        },
        {
          "internalType": "string",
          "name": "gender",
          "type": "string"
        },
        {
          "internalType": "string",
          "name": "addr",
          "type": "string"
        },
        {
          "internalType": "string",
          "name": "mobile",
          "type": "string"
        },
        {
          "internalType": "string",
          "name": "email",
          "type": "string"
        },
        {
          "internalType": "string",
          "name": "subject",
          "type": "string"
        },
        {
          "internalType": "string",
          "name": "description",
          "type": "string"
        }
      ],
      "name": "registerComplaint",
      "outputs": [],
      "payable": false,
      "stateMutability": "nonpayable",
      "type": "function"
    },
    {
      "constant": true,
      "inputs": [],
      "name": "getAllComplaints",
      "outputs": [
        {
          "components": [
            {
              "internalType": "address",
              "name": "complainantID",
              "type": "address"
            },
            {
              "internalType": "string",
              "name": "subject",
              "type": "string"
            },
            {
              "internalType": "string",
              "name": "description",
              "type": "string"
            },
            {
              "internalType": "string",
              "name": "status",
              "type": "string"
            },
            {
              "internalType": "string[]",
              "name": "new_records",
              "type": "string[]"
            },
            {
              "internalType": "uint256",
              "name": "complaint_ref_no",
              "type": "uint256"
            }
          ],
          "internalType": "struct Nitya.Complaint[]",
          "name": "",
          "type": "tuple[]"
        }
      ],
      "payable": false,
      "stateMutability": "view",
      "type": "function"
    },
    {
      "constant": true,
      "inputs": [],
      "name": "getMyComplaints",
      "outputs": [
        {
          "components": [
            {
              "internalType": "address",
              "name": "complainantID",
              "type": "address"
            },
            {
              "internalType": "string",
              "name": "subject",
              "type": "string"
            },
            {
              "internalType": "string",
              "name": "description",
              "type": "string"
            },
            {
              "internalType": "string",
              "name": "status",
              "type": "string"
            },
            {
              "internalType": "string[]",
              "name": "new_records",
              "type": "string[]"
            },
            {
              "internalType": "uint256",
              "name": "complaint_ref_no",
              "type": "uint256"
            }
          ],
          "internalType": "struct Nitya.Complaint[]",
          "name": "",
          "type": "tuple[]"
        }
      ],
      "payable": false,
      "stateMutability": "view",
      "type": "function"
    },
    {
      "constant": true,
      "inputs": [
        {
          "internalType": "uint256",
          "name": "rid",
          "type": "uint256"
        }
      ],
      "name": "getComplaintByRef",
      "outputs": [
        {
          "components": [
            {
              "internalType": "address",
              "name": "complainantID",
              "type": "address"
            },
            {
              "internalType": "string",
              "name": "subject",
              "type": "string"
            },
            {
              "internalType": "string",
              "name": "description",
              "type": "string"
            },
            {
              "internalType": "string",
              "name": "status",
              "type": "string"
            },
            {
              "internalType": "string[]",
              "name": "new_records",
              "type": "string[]"
            },
            {
              "internalType": "uint256",
              "name": "complaint_ref_no",
              "type": "uint256"
            }
          ],
          "internalType": "struct Nitya.Complaint",
          "name": "",
          "type": "tuple"
        }
      ],
      "payable": false,
      "stateMutability": "view",
      "type": "function"
    },
    {
      "constant": false,
      "inputs": [
        {
          "internalType": "string",
          "name": "id",
          "type": "string"
        },
        {
          "internalType": "string",
          "name": "name",
          "type": "string"
        },
        {
          "internalType": "string",
          "name": "location",
          "type": "string"
        }
      ],
      "name": "verifyAgency",
      "outputs": [],
      "payable": false,
      "stateMutability": "nonpayable",
      "type": "function"
    },
    {
      "constant": true,
      "inputs": [],
      "name": "getAllAgencies",
      "outputs": [
        {
          "components": [
            {
              "internalType": "address",
              "name": "id",
              "type": "address"
            },
            {
              "internalType": "string",
              "name": "name",
              "type": "string"
            },
            {
              "internalType": "string",
              "name": "location",
              "type": "string"
            }
          ],
          "internalType": "struct Nitya.Agency[]",
          "name": "",
          "type": "tuple[]"
        }
      ],
      "payable": false,
      "stateMutability": "view",
      "type": "function"
    },
    {
      "constant": false,
      "inputs": [
        {
          "internalType": "string",
          "name": "new_data",
          "type": "string"
        },
        {
          "internalType": "uint256",
          "name": "rid",
          "type": "uint256"
        }
      ],
      "name": "updateComplaint",
      "outputs": [],
      "payable": false,
      "stateMutability": "nonpayable",
      "type": "function"
    }
  ],
  "bytecode": "0x608060405234801561001057600080fd5b5033600760006101000a81548173ffffffffffffffffffffffffffffffffffffffff021916908373ffffffffffffffffffffffffffffffffffffffff1602179055506000600381905550600060048190555063013413306006819055506123188061007c6000396000f3fe608060405234801561001057600080fd5b50600436106100935760003560e01c8063b2e6b91211610066578063b2e6b91214610120578063c3fb77151461013e578063ce6553df1461015c578063dfb39d7d14610178578063fca8631d1461019457610093565b80630dac953914610098578063666cc521146100b6578063767d0067146100e65780638b0d4c7714610104575b600080fd5b6100a06101b2565b6040516100ad91906120cb565b60405180910390f35b6100d060048036036100cb9190810190611cd1565b61058a565b6040516100dd91906120ed565b60405180910390f35b6100ee610928565b6040516100fb91906120cb565b60405180910390f35b61011e60048036036101199190810190611aa0565b610d6a565b005b610128610ead565b604051610135919061208e565b60405180910390f35b610146610ed7565b60405161015391906120a9565b60405180910390f35b61017660048036036101719190810190611b37565b611176565b005b610192600480360361018d9190810190611c7d565b61149a565b005b61019c611545565b6040516101a9919061208e565b60405180910390f35b6060806003546040519080825280602002602001820160405280156101f157816020015b6101de611843565b8152602001906001900390816101d65790505b50905060008090506000600190505b6003548111610581576000808281526020019081526020016000206040518060c00160405290816000820160009054906101000a900473ffffffffffffffffffffffffffffffffffffffff1673ffffffffffffffffffffffffffffffffffffffff1673ffffffffffffffffffffffffffffffffffffffff168152602001600182018054600181600116156101000203166002900480601f0160208091040260200160405190810160405280929190818152602001828054600181600116156101000203166002900480156103155780601f106102ea57610100808354040283529160200191610315565b820191906000526020600020905b8154815290600101906020018083116102f857829003601f168201915b50505050508152602001600282018054600181600116156101000203166002900480601f0160208091040260200160405190810160405280929190818152602001828054600181600116156101000203166002900480156103b75780601f1061038c576101008083540402835291602001916103b7565b820191906000526020600020905b81548152906001019060200180831161039a57829003601f168201915b50505050508152602001600382018054600181600116156101000203166002900480601f0160208091040260200160405190810160405280929190818152602001828054600181600116156101000203166002900480156104595780601f1061042e57610100808354040283529160200191610459565b820191906000526020600020905b81548152906001019060200180831161043c57829003601f168201915b5050505050815260200160048201805480602002602001604051908101604052809291908181526020016000905b82821015610543578382906000526020600020018054600181600116156101000203166002900480601f01602080910402602001604051908101604052809291908181526020018280546001816001161561010002031660029004801561052f5780601f106105045761010080835404028352916020019161052f565b820191906000526020600020905b81548152906001019060200180831161051257829003601f168201915b505050505081526020019060010190610487565b50505050815260200160058201548152505083838151811061056157fe5b602002602001018190525081806001019250508080600101915050610200565b50819250505090565b61059261188f565b6000600190505b6003548110156109215782600080838152602001908152602001600020600501541415610914576000808281526020019081526020016000206040518060c00160405290816000820160009054906101000a900473ffffffffffffffffffffffffffffffffffffffff1673ffffffffffffffffffffffffffffffffffffffff1673ffffffffffffffffffffffffffffffffffffffff168152602001600182018054600181600116156101000203166002900480601f0160208091040260200160405190810160405280929190818152602001828054600181600116156101000203166002900480156106cc5780601f106106a1576101008083540402835291602001916106cc565b820191906000526020600020905b8154815290600101906020018083116106af57829003601f168201915b50505050508152602001600282018054600181600116156101000203166002900480601f01602080910402602001604051908101604052809291908181526020018280546001816001161561010002031660029004801561076e5780601f106107435761010080835404028352916020019161076e565b820191906000526020600020905b81548152906001019060200180831161075157829003601f168201915b50505050508152602001600382018054600181600116156101000203166002900480601f0160208091040260200160405190810160405280929190818152602001828054600181600116156101000203166002900480156108105780601f106107e557610100808354040283529160200191610810565b820191906000526020600020905b8154815290600101906020018083116107f357829003601f168201915b5050505050815260200160048201805480602002602001604051908101604052809291908181526020016000905b828210156108fa578382906000526020600020018054600181600116156101000203166002900480601f0160208091040260200160405190810160405280929190818152602001828054600181600116156101000203166002900480156108e65780601f106108bb576101008083540402835291602001916108e6565b820191906000526020600020905b8154815290600101906020018083116108c957829003601f168201915b50505050508152602001906001019061083e565b505050508152602001600582015481525050915050610923565b8080600101915050610599565b505b919050565b60608060035460405190808252806020026020018201604052801561096757816020015b610954611843565b81526020019060019003908161094c5790505b50905060008090506000600190505b6003548111610d61573373ffffffffffffffffffffffffffffffffffffffff1660008083815260200190815260200160002060000160009054906101000a900473ffffffffffffffffffffffffffffffffffffffff1673ffffffffffffffffffffffffffffffffffffffff161415610d54576000808281526020019081526020016000206040518060c00160405290816000820160009054906101000a900473ffffffffffffffffffffffffffffffffffffffff1673ffffffffffffffffffffffffffffffffffffffff1673ffffffffffffffffffffffffffffffffffffffff168152602001600182018054600181600116156101000203166002900480601f016020809104026020016040519081016040528092919081815260200182805460018160011615610100020316600290048015610af45780601f10610ac957610100808354040283529160200191610af4565b820191906000526020600020905b815481529060010190602001808311610ad757829003601f168201915b50505050508152602001600282018054600181600116156101000203166002900480601f016020809104026020016040519081016040528092919081815260200182805460018160011615610100020316600290048015610b965780601f10610b6b57610100808354040283529160200191610b96565b820191906000526020600020905b815481529060010190602001808311610b7957829003601f168201915b50505050508152602001600382018054600181600116156101000203166002900480601f016020809104026020016040519081016040528092919081815260200182805460018160011615610100020316600290048015610c385780601f10610c0d57610100808354040283529160200191610c38565b820191906000526020600020905b815481529060010190602001808311610c1b57829003601f168201915b5050505050815260200160048201805480602002602001604051908101604052809291908181526020016000905b82821015610d22578382906000526020600020018054600181600116156101000203166002900480601f016020809104026020016040519081016040528092919081815260200182805460018160011615610100020316600290048015610d0e5780601f10610ce357610100808354040283529160200191610d0e565b820191906000526020600020905b815481529060010190602001808311610cf157829003601f168201915b505050505081526020019060010190610c66565b505050508152602001600582015481525050838381518110610d4057fe5b602002602001018190525081806001019250505b8080600101915050610976565b50819250505090565b600760009054906101000a900473ffffffffffffffffffffffffffffffffffffffff1673ffffffffffffffffffffffffffffffffffffffff163373ffffffffffffffffffffffffffffffffffffffff1614610dc457600080fd5b6005600081548092919060010191905055506040518060600160405280610dea8561154d565b73ffffffffffffffffffffffffffffffffffffffff1681526020018381526020018281525060016000600554815260200190815260200160002060008201518160000160006101000a81548173ffffffffffffffffffffffffffffffffffffffff021916908373ffffffffffffffffffffffffffffffffffffffff1602179055506020820151816001019080519060200190610e879291906118db565b506040820151816002019080519060200190610ea49291906118db565b50905050505050565b6000600760009054906101000a900473ffffffffffffffffffffffffffffffffffffffff16905090565b6060600760009054906101000a900473ffffffffffffffffffffffffffffffffffffffff1673ffffffffffffffffffffffffffffffffffffffff163373ffffffffffffffffffffffffffffffffffffffff1614610f3357600080fd5b6060600554604051908082528060200260200182016040528015610f7157816020015b610f5e61195b565b815260200190600190039081610f565790505b50905060008090506000600190505b600554811161116d57600160008281526020019081526020016000206040518060600160405290816000820160009054906101000a900473ffffffffffffffffffffffffffffffffffffffff1673ffffffffffffffffffffffffffffffffffffffff1673ffffffffffffffffffffffffffffffffffffffff168152602001600182018054600181600116156101000203166002900480601f0160208091040260200160405190810160405280929190818152602001828054600181600116156101000203166002900480156110965780601f1061106b57610100808354040283529160200191611096565b820191906000526020600020905b81548152906001019060200180831161107957829003601f168201915b50505050508152602001600282018054600181600116156101000203166002900480601f0160208091040260200160405190810160405280929190818152602001828054600181600116156101000203166002900480156111385780601f1061110d57610100808354040283529160200191611138565b820191906000526020600020905b81548152906001019060200180831161111b57829003601f168201915b50505050508152505083838151811061114d57fe5b602002602001018190525081806001019250508080600101915050610f80565b50819250505090565b6003600081548092919060010191905055506004600081548092919060010191905055506006600081548092919060010191905055506040518060c001604052803373ffffffffffffffffffffffffffffffffffffffff1681526020018881526020018781526020018681526020018581526020018481525060026000600454815260200190815260200160002060008201518160000160006101000a81548173ffffffffffffffffffffffffffffffffffffffff021916908373ffffffffffffffffffffffffffffffffffffffff16021790555060208201518160010190805190602001906112679291906118db565b5060408201518160020190805190602001906112849291906118db565b5060608201518160030190805190602001906112a19291906118db565b5060808201518160040190805190602001906112be9291906118db565b5060a08201518160050190805190602001906112db9291906118db565b5090505033600080600354815260200190815260200160002060000160006101000a81548173ffffffffffffffffffffffffffffffffffffffff021916908373ffffffffffffffffffffffffffffffffffffffff1602179055508160008060035481526020019081526020016000206001019080519060200190611360929190611992565b50806000806003548152602001908152602001600020600201908051906020019061138c929190611992565b506040518060400160405280600781526020017f50656e64696e6700000000000000000000000000000000000000000000000000815250600080600354815260200190815260200160002060030190805190602001906113ed929190611992565b5060008060035481526020019081526020016000206004018060018154018082558091505090600182039060005260206000200160006040518060400160405280601d81526020017f436974697a656e207265676973746572656420636f6d706c61696e742e00000081525090919091509080519060200190611471929190611992565b505060065460008060035481526020019081526020016000206005018190555050505050505050565b600115156114a7336117a6565b1515146114b357600080fd5b60008090505b600354811015611540578160008083815260200190815260200160002060050154141561153357600080828152602001908152602001600020600401839080600181540180825580915050906001820390600052602060002001600090919290919091509080519060200190611530929190611992565b50505b80806001019150506114b9565b505050565b600033905090565b6000606082905060008090506000806000600290505b602a811015611799576101008402935084818151811061157f57fe5b602001015160f81c60f81b60f81c60ff1692508460018201815181106115a157fe5b602001015160f81c60f81b60f81c60ff16915060618373ffffffffffffffffffffffffffffffffffffffff16101580156115f2575060668373ffffffffffffffffffffffffffffffffffffffff1611155b156116025760578303925061169c565b60418373ffffffffffffffffffffffffffffffffffffffff1610158015611640575060468373ffffffffffffffffffffffffffffffffffffffff1611155b156116505760378303925061169b565b60308373ffffffffffffffffffffffffffffffffffffffff161015801561168e575060398373ffffffffffffffffffffffffffffffffffffffff1611155b1561169a576030830392505b5b5b60618273ffffffffffffffffffffffffffffffffffffffff16101580156116da575060668273ffffffffffffffffffffffffffffffffffffffff1611155b156116ea57605782039150611784565b60418273ffffffffffffffffffffffffffffffffffffffff1610158015611728575060468273ffffffffffffffffffffffffffffffffffffffff1611155b1561173857603782039150611783565b60308273ffffffffffffffffffffffffffffffffffffffff1610158015611776575060398273ffffffffffffffffffffffffffffffffffffffff1611155b15611782576030820391505b5b5b81601084020184019350600281019050611563565b5082945050505050919050565b600080600190505b6005548111611838578273ffffffffffffffffffffffffffffffffffffffff166001600083815260200190815260200160002060000160009054906101000a900473ffffffffffffffffffffffffffffffffffffffff1673ffffffffffffffffffffffffffffffffffffffff16141561182b57600191505061183e565b80806001019150506117ae565b50600090505b919050565b6040518060c00160405280600073ffffffffffffffffffffffffffffffffffffffff16815260200160608152602001606081526020016060815260200160608152602001600081525090565b6040518060c00160405280600073ffffffffffffffffffffffffffffffffffffffff16815260200160608152602001606081526020016060815260200160608152602001600081525090565b828054600181600116156101000203166002900490600052602060002090601f016020900481019282601f1061191c57805160ff191683800117855561194a565b8280016001018555821561194a579182015b8281111561194957825182559160200191906001019061192e565b5b5090506119579190611a12565b5090565b6040518060600160405280600073ffffffffffffffffffffffffffffffffffffffff16815260200160608152602001606081525090565b828054600181600116156101000203166002900490600052602060002090601f016020900481019282601f106119d357805160ff1916838001178555611a01565b82800160010185558215611a01579182015b82811115611a005782518255916020019190600101906119e5565b5b509050611a0e9190611a12565b5090565b611a3491905b80821115611a30576000816000905550600101611a18565b5090565b90565b600082601f830112611a4857600080fd5b8135611a5b611a568261213c565b61210f565b91508082526020830160208301858383011115611a7757600080fd5b611a8283828461226b565b50505092915050565b600081359050611a9a816122be565b92915050565b600080600060608486031215611ab557600080fd5b600084013567ffffffffffffffff811115611acf57600080fd5b611adb86828701611a37565b935050602084013567ffffffffffffffff811115611af857600080fd5b611b0486828701611a37565b925050604084013567ffffffffffffffff811115611b2157600080fd5b611b2d86828701611a37565b9150509250925092565b600080600080600080600060e0888a031215611b5257600080fd5b600088013567ffffffffffffffff811115611b6c57600080fd5b611b788a828b01611a37565b975050602088013567ffffffffffffffff811115611b9557600080fd5b611ba18a828b01611a37565b965050604088013567ffffffffffffffff811115611bbe57600080fd5b611bca8a828b01611a37565b955050606088013567ffffffffffffffff811115611be757600080fd5b611bf38a828b01611a37565b945050608088013567ffffffffffffffff811115611c1057600080fd5b611c1c8a828b01611a37565b93505060a088013567ffffffffffffffff811115611c3957600080fd5b611c458a828b01611a37565b92505060c088013567ffffffffffffffff811115611c6257600080fd5b611c6e8a828b01611a37565b91505092959891949750929550565b60008060408385031215611c9057600080fd5b600083013567ffffffffffffffff811115611caa57600080fd5b611cb685828601611a37565b9250506020611cc785828601611a8b565b9150509250929050565b600060208284031215611ce357600080fd5b6000611cf184828501611a8b565b91505092915050565b6000611d068383611eb3565b905092915050565b6000611d1a8383611eec565b905092915050565b6000611d2e8383611fe1565b905092915050565b611d3f8161222f565b82525050565b611d4e8161222f565b82525050565b6000611d5f82612198565b611d6981856121eb565b935083602082028501611d7b85612168565b8060005b85811015611db75784840389528151611d988582611cfa565b9450611da3836121c4565b925060208a01995050600181019050611d7f565b50829750879550505050505092915050565b6000611dd4826121a3565b611dde81856121fc565b935083602082028501611df085612178565b8060005b85811015611e2c5784840389528151611e0d8582611d0e565b9450611e18836121d1565b925060208a01995050600181019050611df4565b50829750879550505050505092915050565b6000611e49826121ae565b611e53818561220d565b935083602082028501611e6585612188565b8060005b85811015611ea15784840389528151611e828582611d22565b9450611e8d836121de565b925060208a01995050600181019050611e69565b50829750879550505050505092915050565b6000611ebe826121b9565b611ec8818561221e565b9350611ed881856020860161227a565b611ee1816122ad565b840191505092915050565b6000606083016000830151611f046000860182611d36565b5060208301518482036020860152611f1c8282611eb3565b91505060408301518482036040860152611f368282611eb3565b9150508091505092915050565b600060c083016000830151611f5b6000860182611d36565b5060208301518482036020860152611f738282611eb3565b91505060408301518482036040860152611f8d8282611eb3565b91505060608301518482036060860152611fa78282611eb3565b91505060808301518482036080860152611fc18282611d54565b91505060a0830151611fd660a086018261207f565b508091505092915050565b600060c083016000830151611ff96000860182611d36565b50602083015184820360208601526120118282611eb3565b9150506040830151848203604086015261202b8282611eb3565b915050606083015184820360608601526120458282611eb3565b9150506080830151848203608086015261205f8282611d54565b91505060a083015161207460a086018261207f565b508091505092915050565b61208881612261565b82525050565b60006020820190506120a36000830184611d45565b92915050565b600060208201905081810360008301526120c38184611dc9565b905092915050565b600060208201905081810360008301526120e58184611e3e565b905092915050565b600060208201905081810360008301526121078184611f43565b905092915050565b6000604051905081810181811067ffffffffffffffff8211171561213257600080fd5b8060405250919050565b600067ffffffffffffffff82111561215357600080fd5b601f19601f8301169050602081019050919050565b6000819050602082019050919050565b6000819050602082019050919050565b6000819050602082019050919050565b600081519050919050565b600081519050919050565b600081519050919050565b600081519050919050565b6000602082019050919050565b6000602082019050919050565b6000602082019050919050565b600082825260208201905092915050565b600082825260208201905092915050565b600082825260208201905092915050565b600082825260208201905092915050565b600061223a82612241565b9050919050565b600073ffffffffffffffffffffffffffffffffffffffff82169050919050565b6000819050919050565b82818337600083830152505050565b60005b8381101561229857808201518184015260208101905061227d565b838111156122a7576000848401525b50505050565b6000601f19601f8301169050919050565b6122c781612261565b81146122d257600080fd5b5056fea365627a7a72315820939aac729c2ff94fedfe9f909d4d4a2c27d516d2c9101c677b7bc4e1481deec76c6578706572696d656e74616cf564736f6c634300050c0040",
  "source": "pragma solidity >=0.4.22 <0.6.0;\npragma experimental ABIEncoderV2;\ncontract Nitya{\n\n    struct Complainant{\n        address id;\n        string name;\n        string gender;\n        string addr;\n        string mobile;\n        string email;\n    }\n    struct Complaint{\n        address complainantID;\n        string subject;\n        string description;\n        string status;\n        string[] new_records;\n        uint complaint_ref_no;\n    }\n    struct Agency{\n        address id;\n        string name;\n        string location;\n    }\n    mapping(uint=>Complaint) private complaints;\n    mapping(uint=>Agency) private agencies;\n    mapping(uint=>Complainant) private complainants;\n    uint complaintCount;\n    uint complainantCount;\n    uint agencyCount;\n    uint complaint_ref_no;\n    address admin;\n    constructor() public {\n        admin = msg.sender;\n        complaintCount=0;\n        complainantCount=0;\n        complaint_ref_no=20190000;\n    }\n    \n    modifier onlyadmin() {\n    require(msg.sender == admin);\n    _;\n    }\n    \n    function isAuthorisedAgency(address addr) internal view returns (bool){\n         for(uint i=1;i<=agencyCount;i++){\n            if(agencies[i].id == addr){\n                return true;\n            }\n        }\n        return false;\n    }\n  \n    function parseAddr(string memory _a) internal pure returns (address _parsedAddress) {\n    bytes memory tmp = bytes(_a);\n    uint160 iaddr = 0;\n    uint160 b1;\n    uint160 b2;\n    for (uint i = 2; i < 2 + 2 * 20; i += 2) {\n        iaddr *= 256;\n        b1 = uint160(uint8(tmp[i]));\n        b2 = uint160(uint8(tmp[i + 1]));\n        if ((b1 >= 97) && (b1 <= 102)) {\n            b1 -= 87;\n        } else if ((b1 >= 65) && (b1 <= 70)) {\n            b1 -= 55;\n        } else if ((b1 >= 48) && (b1 <= 57)) {\n            b1 -= 48;\n        }\n        if ((b2 >= 97) && (b2 <= 102)) {\n            b2 -= 87;\n        } else if ((b2 >= 65) && (b2 <= 70)) {\n            b2 -= 55;\n        } else if ((b2 >= 48) && (b2 <= 57)) {\n            b2 -= 48;\n        }\n        iaddr += (b1 * 16 + b2);\n    }\n    return address(iaddr);\n}\n\n    function getAdminAddress() public view returns(address){\n        return admin;\n    }\n    \n    function getOwnAddress() public view returns(address){\n        return msg.sender;\n    }\n    \n    function registerComplaint( string memory name, string memory gender,string memory addr,string memory mobile,string memory email,string memory subject, string memory description) public {\n        complaintCount++;\n        complainantCount++;\n        complaint_ref_no++;\n        complainants[complainantCount]=Complainant(msg.sender,name,gender,addr,mobile,email);\n        complaints[complaintCount].complainantID=msg.sender;\n        complaints[complaintCount].subject=subject;\n        complaints[complaintCount].description=description;\n        complaints[complaintCount].status=\"Pending\";\n        complaints[complaintCount].new_records.push(\"Citizen registered complaint.\");\n        complaints[complaintCount].complaint_ref_no=complaint_ref_no;\n    }\n    \n    function getAllComplaints() public view returns(Complaint[] memory){\n        Complaint[] memory all_complaints=new Complaint[](complaintCount);\n        uint count=0;\n        for(uint i=1;i<=complaintCount;i++){\n                all_complaints[count]=complaints[i];\n                count++;\n        }\n        return all_complaints;\n    }\n\n    function getMyComplaints() public view returns(Complaint[] memory){\n        Complaint[] memory my_complaints=new Complaint[](complaintCount);\n        uint count=0;\n        for(uint i=1;i<=complaintCount;i++){\n            if(complaints[i].complainantID==msg.sender){\n                my_complaints[count]=complaints[i];\n                count++;\n            }\n        }\n        return my_complaints;\n    }\n    \n    function getComplaintByRef(uint rid) public view returns(Complaint memory){\n        for(uint i=1;i<complaintCount;i++){\n            if(complaints[i].complaint_ref_no==rid){\n                return complaints[i];\n            }\n        }\n    }\n    \n    function verifyAgency(string memory id,string memory name, string memory location) public onlyadmin {\n        agencyCount++;\n        agencies[agencyCount]=Agency(parseAddr(id),name,location);\n    }\n    \n    function getAllAgencies() public onlyadmin view returns(Agency[] memory){\n        Agency[] memory all_agencies=new Agency[](agencyCount);\n        uint count=0;\n        for(uint i=1;i<=agencyCount;i++){\n                all_agencies[count]=agencies[i];\n                count++;\n        }\n        return all_agencies;\n    }    \n    \n    function updateComplaint(string memory new_data, uint rid) public {\n        require(isAuthorisedAgency(msg.sender)==true);\n            for(uint i=0;i<complaintCount;i++){\n                if(complaints[i].complaint_ref_no==rid){\n                    complaints[i].new_records.push(new_data);\n                }\n            }\n        \n    }\n    \n}",
  "sourcePath": "/Users/sarvottamkumar/Desktop/Github/nitya/contracts/Nitya.sol",
  "compiler": {
    "name": "solc",
    "version": "0.5.12+commit.7709ece9.Emscripten.clang"
  },
  "schemaVersion": "3.0.19",
  "updatedAt": "2019-11-29T15:09:40.581Z",
  "networkType": "ethereum",
  "devdoc": {
    "methods": {}
  },
  "userdoc": {
    "methods": {}
  }
}